:020000040800F2
:10000000804C0020ED790008797900087B790008A0
:100010007D7900087F7900088179000800000000E0
:10002000000000000000000000000000F176000861
:100030008379000800000000997600081176000816
:10004000317A0008357A0008397A00083D7A0008CC
:10005000417A0008457A0008497A00084D7A00087C
:10006000517A0008557A0008597A00085D7A00082C
:10007000617A0008657A0008697A00086D7A0008DC
:10008000717A0008757A0008797A00087D7A00088C
:10009000817A0008857A0008897A00088D7A00083C
:1000A000917A0008957A0008997A00089D7A0008EC
:1000B000A17A0008A57A0008A97A0008AD7A00089C
:1000C000B17A0008B57A0008B97A0008BD7A00084C
:1000D000C17A0008C57A0008C97A0008CD7A0008FC
:1000E000D17A0008D57A000800000000D97A00080B
:1000F000DD7A0008E17A0008E57A0008E97A00086C
:10010000ED7A0008F17A0008F57A0008F97A00081B
:10011000FD7A0008017B0008057B0008857900084E
:10012000097B00080D7B0008117B0008157B000887
:10013000197B00081D7B0008217B0008257B000837
:1001400000000000000000000000000000000000AF
:10015000297B00082D7B0008317B0008357B0008D7
:10016000397B00083D7B0008417B0008457B000887
:10017000497B00084D7B0008517B0008000000000F
:10018000557B0008597B00085D7B0008617B0008F7
:10019000657B0008697B00086D7B0008717B0008A7
:1001A000757B0008797B00087D7B0008817B000857
:1001B000857B0008897B00088D7B0008917B000807
:1001C000957B0008997B00089D7B0008A17B0008B7
:1001D000A57B0008A97B0008AD7B0008B17B000867
:1001E000B57B0008B97B0008BD7B0008C17B000817
:1001F000C57B0008C97B0008CD7B0008D17B0008C7
:10020000D57B0008D97B0008DD7B0008E17B000876
:10021000E57B0008E97B0008ED7B0008F17B000826
:10022000F57B0008F97B0008FD7B0008000000005A
:10023000017C0008057C000800000000097C000823
:100240000D7C0008117C0008157C0008197C000852
:100250001D7C0008217C0008257C0008297C000802
:100260002D7C0008317C0008357C0008397C0008B2
:100270003D7C0008417C0008457C0008000000002F
:10028000497C00084D7C0008517C000800000000FB
:1002900000000000557C00082DE9F8430400002709
:1002A0005FF00008D4E90001000132D5A06E0028FB
:1002B00009D0B0F5801F0DD0B0F5001F11D0B0F5FA
:1002C000401F15D015E0DFF8C809016851F400316E
:1002D000016010E0022114F1080001F00FF807009E
:1002E00009E0022114F1280001F096F8070002E06D
:1002F00001E0012007003800C0B2002808D1DFF873
:100300005C1B0A6832F44012A06E02430A6000E0EF
:10031000B846D4E90001C00530D5A06D002806D04C
:10032000022812D00AD3042817D015D316E0DFF81C
:100330006009016851F40031016011E0002114F1FD
:10034000080000F0DBFF07000AE0002114F128009C
:1003500001F062F8070003E002E001E0012007007D
:100360003800C0B2002808D1DFF8F01A0A68D208B5
:10037000D200A06D02430A6000E0B846D4E9000153
:10038000800533D5E06D002809D040280ED08028A4
:1003900013D0C02818D0B0F5807F16D016E0DFF853
:1003A000F008016851F40031016011E0002114F1FE
:1003B000080000F0A3FF07000AE0002114F1280064
:1003C00001F02AF8070003E002E001E00120070045
:1003D0003800C0B2002808D1DFF8801A0A6832F469
:1003E000E072E06D02430A6000E0B846D4E9000123
:1003F000400538D5D4F8A80000280CD0B0F5001F6F
:1004000010D0B0F5800F14D0B0F5C00F18D0B0F5F3
:10041000000F16D016E0DFF87808016851F40031BB
:10042000016011E0002114F1080000F067FF0700EF
:100430000AE0002114F1280000F0EEFF070003E0BD
:1004400002E001E0012007003800C0B2002809D115
:10045000DFF80C1A0A6832F46002D4F8A8000243EC
:100460000A6000E0B846D4E90001000538D5D4F8A8
:10047000AC0000280CD0B0F1807F10D0B0F1007F2C
:1004800014D0B0F1407F18D0B0F1806F16D016E0D4
:10049000DFF8FC07016851F40031016011E0002130
:1004A00014F1080000F02AFF07000AE0002114F10F
:1004B000280000F0B1FF070003E002E001E00120A6
:1004C00007003800C0B2002809D1DFF894190A6883
:1004D00032F0E062D4F8AC0002430A6000E0B846B3
:1004E000D4E90001800129D5E06C002815D010283E
:1004F00004D0202809D030280ED00FE0DFF8900774
:10050000016851F4003101600AE0022114F1080091
:1005100000F0F4FE070003E002E001E00120070024
:100520003800C0B2002808D1DFF838190A6832F064
:100530003002E06C02430A6000E0B846D4E90001F2
:10054000C00436D5206E00280CD0B0F5805F10D0E6
:10055000B0F5005F14D0B0F5405F18D0B0F5804F13
:1005600016D016E0DFF82807016851F40031016069
:1005700011E0002114F1080000F0C0FE07000AE0BD
:10058000002114F1280000F047FF070003E002E01B
:1005900001E0012007003800C0B2002808D1DFF8D0
:1005A000BC180A6832F4E042206E02430A6000E0A0
:1005B000B846D4E90001800434D5606E00280FD01D
:1005C000B0F5803F0DD0B0F5003F11D0B0F5403F01
:1005D00015D0B0F5802F13D0B0F5A02F11D011E0B9
:1005E00012E0012114F1080000F088FE07000BE082
:1005F000012114F1280000F00FFF070004E003E0E0
:1006000002E001E0012007003800C0B2002808D154
:10061000DFF848180A6832F4E022606E02430A608C
:1006200000E0B846D4E90001400436D5D4F8B00063
:1006300000280FD0B0F1805F0DD0B0F1005F11D075
:10064000B0F1405F15D0B0F1804F13D0B0F1A04FA2
:1006500011D011E012E0012114F1080000F04EFE6B
:1006600007000BE0012114F1280000F0D5FE07007F
:1006700004E003E002E001E0012007003800C0B21E
:10068000002809D1DFF8D8170A6832F0E042D4F820
:10069000B00002430A6000E0B846D4E9000100045B
:1006A00028D5206F002814D0B0F1805F03D0B0F1BE
:1006B000005F07D00EE0DFF8D805016851F4003183
:1006C000016009E0012114F1080000F017FE0700A5
:1006D00002E001E0012007003800C0B2002808D184
:1006E000DFF878170A6832F04052206F02430A6040
:1006F00000E0B846D4E90001C00128D5A06C00286C
:1007000014D002280AD002D303280ED00FE0DFF85D
:100710008005016851F4003101600AE0022114F102
:10072000080000F0EBFD070003E002E001E001201B
:1007300007003800C0B2002808D1DFF828170A687F
:1007400092089200A06C02430A6000E0B846D4E927
:100750000001400279D5DFF81097D9F8000050F475
:100760008070C9F8000000F0F7FE0600D9F800001C
:10077000C00506D400F0F0FE801B6528F6D30320E8
:1007800007003800C0B200285ED1DFF8E096D9F843
:10079000000010F44070D4F8B41011F44071884295
:1007A00012D0D9F8000030F440700500D9F80000EC
:1007B00050F48030C9F80000D9F8000030F48030DF
:1007C000C9F80000C9F80050D4F8B400B0F5807F33
:1007D0000FD100F0C1FE0600D9F80000800708D450
:1007E00000F0BAFE801B41F289318842F4D3032025
:1007F00007003800C0B2002824D1D4F8B40010F4A7
:100800004070B0F5407F0DD1DFF86406016831F427
:100810007C51D4F8B420DFF85C3613EA1213194384
:10082000016005E0DFF84806016831F47C510160A1
:10083000D9F80000D4F8B4100905090D0843C9F827
:10084000000002E0B84600E0B8462078C0072FD587
:10085000E06F00280AD0082809D010280ED01828E8
:1008600013D0202812D0282811D011E012E0012145
:1008700014F1080000F042FD07000BE0012114F123
:10088000280000F0C9FD070004E003E002E001E0F9
:10089000012007003800C0B2002808D1DFF8D815C1
:1008A0000A6832F03802E06F02430A6000E0B8469E
:1008B000207880072DD5A06F002808D002280ED000
:1008C00006D3042813D011D3052811D011E012E06B
:1008D000012114F1080000F011FD07000BE00121D7
:1008E00014F1280000F098FD070004E003E002E0A6
:1008F00001E0012007003800C0B2002808D1DFF86D
:1009000078150A68D208D200A06F02430A6000E09E
:10091000B846207840072FD5D4F89400002808D096
:1009200002280ED006D3042813D011D3052811D0E5
:1009300011E012E0012114F1080000F0DFFC0700D3
:100940000BE0012114F1280000F066FD070004E02F
:1009500003E002E001E0012007003800C0B20028F7
:1009600009D1DFF8FC140A68D208D200D4F8940048
:1009700002430A6000E0B8462078800636D5D4F8F5
:10098000900000280FD0B0F1805F0DD0B0F1005F73
:1009900011D0B0F1405F15D0B0F1804F13D0B0F15D
:1009A000A04F11D011E012E0002114F1080000F076
:1009B000A5FC07000BE0022114F1280000F02CFD3B
:1009C000070004E003E002E001E001200700380036
:1009D000C0B2002809D1DFF8A0140A6832F0E04262
:1009E000D4F8900002430A6000E0B8462078400640
:1009F00036D5D4F89C0000280FD0B0F5806F0DD00C
:100A0000B0F5006F11D0B0F5406F15D0B0F5805F34
:100A100013D0B0F5A05F11D011E012E0002114F165
:100A2000080000F06BFC07000BE0022114F1280025
:100A300000F0F2FC070004E003E002E001E0012026
:100A400007003800C0B2002809D1DFF814140A6882
:100A500032F4E052D4F89C0002430A6000E0B84649
:100A60002078000636D5D4F8A00000280FD0B0F5C5
:100A7000005F0DD0B0F5804F11D0B0F5C04F15D04C
:100A8000B0F5004F13D0B0F5204F11D011E012E0B7
:100A9000002114F1080000F031FC07000BE00221F6
:100AA00014F1280000F0B8FC070004E003E002E0C5
:100AB00001E0012007003800C0B2002809D1DFF8AA
:100AC000A0130A6832F46042D4F8A00002430A601E
:100AD00000E0B8462078000716D5D4F88400B0F5B9
:100AE000805F08D1022114F1280000F095FC002855
:100AF00001D001208046DFF880130A6832F44052AA
:100B0000D4F8840002430A602078C00616D5D4F8D1
:100B10009800B0F5807F08D1022114F1280000F080
:100B20007BFC002801D001208046DFF834130A68DE
:100B300032F44072D4F8980002430A60D4E900010C
:100B4000000329D5D4F8A400002806D0B0F5803FD2
:100B50000AD0B0F5003F0ED00EE0002114F10800DD
:100B600000F0CCFB070009E0022114F1280000F09E
:100B700053FC070002E001E0012007003800C0B28A
:100B8000002808D1B6490A6832F44032D4F8A400EB
:100B900002430A6000E0B846D4E9000140032AD5C8
:100BA000D4F88800B0F5801F06D0B0F5001F09D03A
:100BB000B0F5401F0DD00DE03548016851F400310B
:100BC000016009E0012114F1280000F025FC070074
:100BD00002E001E0012007003800C0B2002809D17E
:100BE000DFF894120A6832F44012D4F88800024305
:100BF0000A6000E0B846D4E90001C00323D5206DA7
:100C0000002803D0B0F5803F06D00CE020480168F2
:100C100051F40031016008E0022114F1080000F0F5
:100C20006DFB070001E0012007003800C0B200287A
:100C300008D1DFF830120A6832F48032206D0243A6
:100C40000A6000E0B846D4E90001800008D502211E
:100C500014F1280000F0E0FB002801D001208046BC
:100C6000D4E90001800329D5D4F88000002813D0EE
:100C7000B0F5807F06D0B0F5007F0BD0B0F5407F97
:100C800009D00AE00248016851F40031016006E031
:100C90002C44025803E002E001E001200700380084
:100CA000C0B2002809D1DFF8D0110A6832F44072CE
:100CB000D4F8800002430A6000E0B846D4E900019D
:100CC000C00206D565490A6822F00042606F0243FF
:100CD0000A60D4E90001C00008D5DFF894110A6861
:100CE00032F48042D4F8B80002430A60D4E900012B
:100CF000800206D559490A6832F08072E06E0243DC
:100D00000A60D4E9000140000AD5DFF864110868E0
:100D100030F4004008600A68D4F8BC0002430A605E
:100D2000D4E90001002806D54E490A6832F0405245
:100D3000606D02430A60D4E90001000207D54E4904
:100D40000A6832F44002D4F88C0002430A60D4E905
:100D5000000110F0000011F00101002901D100286C
:100D60000AD0002114F1080000F0C8FA070038008A
:100D7000C0B2002800D0B846D4E9000110F000004D
:100D800011F00201002901D100280AD0012114F13B
:100D9000080000F0B3FA07003800C0B2002800D005
:100DA000B846D4E9000110F0000011F00401002958
:100DB00001D100280AD0022114F1080000F09EFAA7
:100DC00007003800C0B2002800D0B846D4E90001BE
:100DD00010F0000011F00801002901D100280AD00C
:100DE000002114F1280000F017FB07003800C0B202
:100DF000002800D0B846D4E9000110F0000011F03E
:100E00001001002901D100280AD0012114F1280085
:100E100000F002FB07003800C0B2002800D0B8463E
:100E2000D4E9000110F0000011F02001002901D1E7
:100E300000280AD0022114F1280000F0EDFA070082
:100E40003800C0B2002800D0B8464046C0B20028E2
:100E500001D1002000E00120BDE8F2835044025897
:100E6000584402584C4402580048025870440258F2
:100E700010440258CFFFFF005444025880B500F0E0
:100E8000C5FDDFF8B016DFF8B0261268C2F3021213
:100E9000895C11F01F01C84002BD000030B48549D3
:100EA0000A6812F003020968C1F30531824B1B681E
:100EB000C3F30013DFF884462468C4F3CC0404FBB6
:100EC00003F401EE104AB8EE411A002900F0EA805E
:100ED000002A03D0022A70D04FD38EE0DFF80444FA
:100EE0002568AD0629D5DFF800542468C4F3C10491
:100EF000E54001EE905AB0EE610AF8EE401A02EEBB
:100F0000101AB8EE422AC1EE821ADFF8344624687D
:100F1000E405E40D02EE104AB8EE422ADFED672A3E
:100F2000C1EE222A32EE222AF7EE002A32EE222ADF
:100F300061EE821AF0EE610A1EE001EE901AF8EE00
:100F4000611A9FED5F2AC2EE211ADFF8F44524688A
:100F5000E405E40D02EE104AB8EE422ADFED572A0E
:100F6000C1EE222A32EE222AF7EE002A32EE222A9F
:100F700061EE821AF0EE610A5EE001EE901AF8EE80
:100F8000611A9FED502AC2EE211ADFF8B445246899
:100F9000E405E40D02EE104AB8EE422ADFED472ADE
:100FA000C1EE222A32EE222AF7EE002A32EE222A5F
:100FB00061EE821AF0EE610A3EE001EE901AF8EE60
:100FC000611A9FED412AC2EE211ADFF874452468A8
:100FD000E405E40D02EE104AB8EE422ADFED372AAE
:100FE000C1EE222A32EE222AF7EE002A32EE222A1F
:100FF00061EE821AF0EE610A1EE001EE901AF8EE40
:10100000611A9FED302AC2EE211ADFF834452468B8
:10101000E405E40D02EE104AB8EE422ADFED272A7D
:10102000C1EE222A32EE222AF7EE002A32EE222ADE
:1010300061EE821AF0EE610ADFF804452568C5F317
:10104000462501EE905AF8EE611AB7EE002A71EECD
:10105000821AC0EEA11AFCEEE11AC0ED001A256852
:10106000C5F3064501EE905AF8EE611AB7EE002A74
:1010700071EE821AC0EEA11AFCEEE11AC0ED011A5F
:101080002468C4F3066401EE904AF8EE611AB7EEE4
:10109000002A71EE821AC0EEA11AFCEEE11AC0ED30
:1010A000021A05E0002404600024446000248460E7
:1010B00030BC7047284402582C44025800000046B7
:1010C0000024744C0024744A0024F44A30B4DFF83D
:1010D00074140A6812F003020968C1F30551DFF8BD
:1010E00068341B68C3F30023DFF860442468C4F34A
:1010F000CC0404FB03F401EE104AB8EE411A0029B7
:1011000000F0E880002A03D0022A6ED04DD38CE094
:10111000744C2568AD0628D5734D2468C4F3C1040A
:10112000E54001EE905AB0EE610AF8EE401A02EE88
:10113000101AB8EE422AC1EE821ADFF8144424686D
:10114000E405E40D02EE104AB8EE422ADFED672A0C
:10115000C1EE222A32EE222AF7EE002A32EE222AAD
:1011600061EE821AF0EE610A1EE001EE901AF8EECE
:10117000611A9FED5F2AC2EE211ADFF8D44324687A
:10118000E405E40D02EE104AB8EE422ADFED572ADC
:10119000C1EE222A32EE222AF7EE002A32EE222A6D
:1011A00061EE821AF0EE610A5EE001EE901AF8EE4E
:1011B000611A9FED502AC2EE211ADFF89443246889
:1011C000E405E40D02EE104AB8EE422ADFED472AAC
:1011D000C1EE222A32EE222AF7EE002A32EE222A2D
:1011E00061EE821AF0EE610A3EE001EE901AF8EE2E
:1011F000611A9FED412AC2EE211ADFF85443246898
:10120000E405E40D02EE104AB8EE422ADFED372A7B
:10121000C1EE222A32EE222AF7EE002A32EE222AEC
:1012200061EE821AF0EE610A1EE001EE901AF8EE0D
:10123000611A9FED302AC2EE211ADFF814432468A8
:10124000E405E40D02EE104AB8EE422ADFED272A4B
:10125000C1EE222A32EE222AF7EE002A32EE222AAC
:1012600061EE821AF0EE610ADFF8E4422568C5F308
:10127000462501EE905AF8EE611AB7EE002A71EE9B
:10128000821AC0EEA11AFCEEE11AC0ED001A256820
:10129000C5F3064501EE905AF8EE611AB7EE002A42
:1012A00071EE821AC0EEA11AFCEEE11AC0ED011A2D
:1012B0002468C4F3066401EE904AF8EE611AB7EEB2
:1012C000002A71EE821AC0EEA11AFCEEE11AC0EDFE
:1012D000021A05E0002404600024446000248460B5
:1012E00030BC7047004402580090D0030000004614
:1012F0000024744C0024744A0024F44A2DE9F84375
:1013000005000C000026DFF83C92D9F8000010F030
:101310000300032801D101207CE0DFF83882D8F8EF
:10132000000030F08060C8F8000000F015F90700F8
:10133000D8F80000000106D500F00EF9C01B032804
:10134000F6D3032066E0D9F8000030F47C30296839
:1013500050EA0130C9F800006868401EC005C00DA1
:10136000A968491E490211F47E410843E968491EF3
:10137000090411F4FE0108432969491E090611F008
:10138000FE4108436E4908606F490A6832F0C002A6
:10139000686902430A600A6832F02002A8690243C1
:1013A0000A60086830F010000860644802686FF353
:1013B000CF02EB6952EAC3020260086850F01000E5
:1013C0000860002C04D1086850F4002008600AE08E
:1013D000012C04D1086850F48010086003E008680C
:1013E00050F400100860D8F8000050F08060C8F891
:1013F000000000F0B1F88146D8F80000000107D4E1
:1014000000F0AAF8B0EB09000328F5D3032001E0AF
:101410003000C0B2BDE8F2832DE9F84305000C00AE
:101420000026DFF82091D9F8000010F0030003280F
:1014300001D101207CE0DFF81C81D8F8000030F0F9
:101440008050C8F8000000F087F80700D8F80000C6
:10145000800006D500F080F8C01B0328F6D30320D7
:1014600066E0D9F8000030F07C70296850EA01503D
:10147000C9F800006868401EC005C00DA968491E73
:10148000490211F47E410843E968491E090411F438
:10149000FE0108432969491E090611F0FE4108436F
:1014A0002B49086028490A6832F44062686902439F
:1014B0000A600A6832F40072A86902430A60086888
:1014C00030F480700860214802686FF3CF02EB6946
:1014D00052EAC3020260086850F480700860002C71
:1014E00004D1086850F4800008600AE0012C04D19F
:1014F000086850F40000086003E0086850F080704D
:101500000860D8F8000050F08050C8F8000000F0E3
:1015100023F88146D8F80000800007D400F01CF8BA
:10152000B0EB09000328F5D3032001E03000C0B27E
:10153000BDE8F283DC790008204402583C4402589C
:1015400038440258284402582C4402584444025853
:10155000404402580044025801480068704700BFE8
:10156000384800202DE9F04104000D00002C01D185
:1015700001203DE1DFF86075386810F00F00A842E7
:101580000BD238680009000128433860386810F031
:101590000F00A84201D001202AE1207840070DD594
:1015A000DFF85015086810F070002269904205D2EB
:1015B0000A6832F07002206902430A60207800074E
:1015C0000DD5DFF83415086810F07000626990429C
:1015D00005D20A6832F07002606902430A6020781E
:1015E000C0060DD5DFF81015086810F4E060A26998
:1015F000904205D20A6832F4E062A06902430A60B0
:10160000207880060DD5DFF8F414086810F070001B
:10161000E269904205D20A6832F07002E069024342
:101620000A60207880070DD5DFF8C814086810F02C
:101630000F00E268904205D20A6812091201E068C0
:1016400002430A602078C0074AD5DFF8A8140A6868
:1016500032F47062A06802430A606068022806D112
:10166000DFF87804006880031CD40120C0E06068C3
:10167000032806D1DFF864040068800112D4012039
:10168000B6E06068012806D1DFF850040068C005A4
:1016900008D40120ACE0DFF844040068400701D41E
:1016A0000120A5E0DFF83884D8F80010C908C90087
:1016B00060680143C8F80010FFF74EFF0600D8F835
:1016C000000010F038006168B0EBC10F08D0FFF7E0
:1016D00043FF801B41F289318842F0D3032087E029
:1016E000207880070DD5DFF80C14E0680A6812F046
:1016F0000F02904205D20A6812091201E068024303
:101700000A60386810F00F0085420BD23868000973
:10171000000128433860386810F00F00A84201D05B
:10172000012065E0207840070DD5DFF8C813206957
:101730000A6812F07002904205D20A6832F0700214
:10174000206902430A60207800070DD5DFF8A8134E
:1017500060690A6812F07002904205D20A6832F09D
:101760007002606902430A602078C0060DD5DFF878
:101770008813A0690A6812F4E062904205D20A68F0
:1017800032F4E062A06902430A60207880060DD539
:10179000DFF86813E0690A6812F07002904205D21F
:1017A0000A6832F07002E06902430A6000F022F831
:1017B0000700DFF85C13DFF83C030268C2F3032282
:1017C0008A5C12F01F02D740006810F00F00085C1E
:1017D00010F01F003900C140DFF810030160DFF88E
:1017E00008030760DFF80803006800F097F9C0B24B
:1017F000BDE8F08110B4DFF8E802006810F03800AE
:10180000002806D0082813D0102814D0182815D086
:10181000F9E0DFF8C8422068800606D5DFF8C40288
:101820002468C4F3C104E04001E0DFF8B802EBE053
:10183000DFF8E002E8E0DFF8E002E5E0DFF8C00210
:10184000046814F0030422000068C0F305100100CE
:10185000DFF8B002006810F001000300DFF8AC020E
:101860000068C0F3CC0000FB03F002EE100AB8EEF3
:10187000422AB0EE421A002900F0C380002A03D0A9
:10188000022A6FD04FD38CE0DFF850020468A40620
:1018900029D5DFF850420068C0F3C100C44002EE11
:1018A000104AF0EE420AB8EE602A02EE901AF8EE04
:1018B000622A82EE222ADFF850020068C005C00DBD
:1018C00002EE900AF8EE622A9FED6B3A81EE033A3F
:1018D00072EE832AB7EE003A72EE832A22EE222AB3
:1018E000F0EE421A1EE002EE101AB8EE422ADFEDC8
:1018F000632A82EE822ADFF810020068C005C00D5C
:1019000002EE900AF8EE622A9FED5B3A81EE033A0E
:1019100072EE832AB7EE003A72EE832A22EE222A72
:10192000F0EE421A5BE002EE101AB8EE422ADFED4A
:10193000542A82EE822A74480068C005C00D02EE67
:10194000900AF8EE622A9FED4C3A81EE033A72EE6D
:10195000832AB7EE003A72EE832A22EE222AF0EEB4
:10196000421A3CE002EE101AB8EE422ADFED452A98
:1019700082EE822A64480068C005C00D02EE900A1B
:10198000F8EE622A9FED3C3A81EE033A72EE832A2A
:10199000B7EE003A72EE832A22EE222AF0EE421AC5
:1019A0001DE002EE101AB8EE422ADFED352A82EE73
:1019B000822A55480068C005C00D02EE900AF8EE74
:1019C000622A9FED2D3A81EE033A72EE832AB7EE3A
:1019D000003A72EE832A22EE222AF0EE421A4A4898
:1019E0000068C0F34620401C02EE100AB0EE420A26
:1019F000B8EE402A81EE822ABCEEC22A12EE100A0C
:101A000000E0002000E0434810BC704780B5FFF7BD
:101A1000F1FE010037483E4A0368C3F30323D35C59
:101A200013F01F03D940314B006810F00F00105C19
:101A300010F01F000A00C2401A602B4801601868AD
:101A400002BD80B5FFF7E2FF31492B4A1268C2F3AD
:101A50000212895C11F01F01C84002BD80B5FFF77A
:101A6000D5FF2B49244A1268C2F30222895C11F087
:101A70001F01C84002BD0000000000460024744C55
:101A80000024744A0024F44A3F220260144A126877
:101A900012F007024260174A136813F47063836000
:101AA000136813F00F03C360126812F07002026132
:101AB000114A136813F070034361126812F4E06274
:101AC00082610E4A126812F07002C261024A126804
:101AD00012F00F020A6070470020005200440258C2
:101AE000104402580090D003080000200C00002091
:101AF00004000020184402581C4402582044025894
:101B0000284402582C4402583044025834440258A5
:101B1000DC79000800093D0000127A002DE9F0414F
:101B20008AB00500102D1BD200222900372000F0BA
:101B3000B1F8372000F0C0F81F4805601F48016861
:101B400051F020010160006810F020000090009822
:101B500001A902A8FFF798FF079C002C06D101E01D
:101B6000012026E0FFF76DFF060003E0FFF769FFA5
:101B7000060076001248B6FBF0F77F1EDFF84480BF
:101B80001148C8F8000040F2E730C8F80C00C8F867
:101B900004700020C8F810000020C8F80800404673
:101BA00000F09CF8002803D1404600F0D4F800E093
:101BB00001200AB0BDE8F08104000020E84402588A
:101BC00040420F002C4600200014004010B410F0DA
:101BD0000703DFF8F44022684FF6FF010A4052EA9B
:101BE0000322DFF8E8100A43226010BC7047DFF8D8
:101BF000D8000068C0F3022070470000010009B25D
:101C000000290AD4012210F01F018A40DFF8C01019
:101C100003001BB25B0941F82320704710B4020097
:101C200012B2002A05D40A012A4B040024B21A5524
:101C300008E00A01284B040024B214F00F042344E6
:101C400003F8042C10BC704770B4030013F00704B1
:101C5000D4F10700052801D3042001E0D4F10700E6
:101C6000251D072D01D2002500E0E51E012616FAEC
:101C700000F0401E0140A94016FA05F56D1E2A40ED
:101C80001143080070BC704710B504002000FFF736
:101C90009DFF10BDF8B504000D001600FFF7A7FF6B
:101CA0000700320029003800FFF7CEFF01002000B6
:101CB00000B2FFF7B3FFF1BD10B50400200000B281
:101CC000FFF79CFF10BD00000CED00E00000FA05DE
:101CD00000E100E000E400E018ED00E010B50400D1
:101CE000002C01D1012035E094F83D00002805D1F9
:101CF000002084F83C00200000F0DFFE022084F881
:101D00003D00211D206800F0E4FB012084F848001C
:101D1000012084F83E00012084F83F00012084F86F
:101D20004000012084F84100012084F84200012095
:101D300084F84300012084F84400012084F8450021
:101D4000012084F84600012084F84700012084F82F
:101D50003D00002010BD010091F83D00012801D098
:101D6000012048E0022081F83D000868C06850F07A
:101D700001000B68D8600868DFF87C30984221D0F9
:101D80000868B0F1804F1DD00868DFF870309842C5
:101D900018D00868DFF86830984213D00868DFF878
:101DA000643098420ED00868DFF85C30984209D061
:101DB0000868DFF85830984204D00868DFF85030DF
:101DC000984211D108688368DFF8480003401A0080
:101DD000062A0FD0B2F5803F0CD00868006850F09A
:101DE00001000B68186005E00868006850F0010009
:101DF0000B6818600020704700000140000400409C
:101E000000080040000C00400004014000180040A1
:101E1000004001400700010010B50400002C01D172
:101E2000012035E094F83D00002805D1002084F819
:101E30003C00200000F0BAFE022084F83D00211D85
:101E4000206800F046FB012084F84800012084F857
:101E50003E00012084F83F00012084F8400001206A
:101E600084F84100012084F84200012084F84300F6
:101E7000012084F84400012084F84500012084F802
:101E80004600012084F84700012084F83D0000202E
:101E900010BD70B505000C00002C02D195F83E0075
:101EA00015E0042C02D195F83F0010E0082C02D177
:101EB00095F840000BE00C2C02D195F8410006E0AB
:101EC000102C02D195F8420001E095F8430001285A
:101ED00001D001208EE0002C04D1022085F83E00C4
:101EE000C0B21FE0042C04D1022085F83F00C0B22C
:101EF00018E0082C04D1022085F84000C0B211E09F
:101F00000C2C04D1022085F84100C0B20AE0102C4C
:101F100004D1022085F84200C0B203E0022085F817
:101F20004300C0B201222100286800F0FEFCDFF867
:101F3000C8002968814213D02968DFF8C020914287
:101F40000ED02968DFF8B820914209D02968DFF85F
:101F5000C820914204D02968DFF8B820914201D10D
:101F6000012100E00021C9B2002905D02968496C8F
:101F700051F400412A6851642968814221D02868BF
:101F8000B0F1804F1DD02868DFF87810884218D053
:101F90002868DFF87410884213D02868DFF86C10C6
:101FA00088420ED02868DFF85410884209D028688B
:101FB000DFF85C10884204D02868DFF844108842BB
:101FC00011D128688168DFF8540001400E00062E08
:101FD0000FD0B6F5803F0CD02868006850F00100A3
:101FE0002968086005E02868006850F00100296849
:101FF0000860002070BD00000000014000040140A6
:10200000004001400004004000080040000C004077
:102010000018004000480140004401400700010052
:1020200038B504000D00002C01D101205EE094F8C9
:102030003D00002805D1002084F83C00200000F07D
:102040004DFD022084F83D0020688168DFF8A00083
:10205000014020688160211D206800F03AFA206864
:102060008168206882692068036A28680143DFF874
:1020700084000240A8680243A86952EA0022DFF8FF
:1020800078000240DFF874000240E8680243E86923
:1020900052EA0022286952EA0012286A52EA003203
:1020A00033F0220333F0880368680343686953EA16
:1020B000001320688160206882612068036201202B
:1020C00084F84800012084F83E00C0B2012084F862
:1020D0003F00C0B2012084F84400C0B2012084F85F
:1020E0004500C0B2012084F83D00002032BD000050
:1020F000F8BFFEFFFCFCFFFFF3F3FFFF0F0FFFFF36
:1021000070B504002068C56820680669B00718D556
:10211000A80716D57FF0020021680861012020770A
:102120002068806910F0030F03D0200000F03FFD0D
:1021300005E0200000F03CFD200000F03AFD00200A
:102140002077700718D5680716D57FF0040021683E
:102150000861022020772068806910F4407F03D056
:10216000200000F024FD05E0200000F021FD20000B
:1021700000F01FFD00202077300718D5280716D55E
:102180007FF0080021680861042020772068C0697A
:1021900010F0030F03D0200000F009FD05E020003F
:1021A00000F006FD200000F004FD00202077F0067E
:1021B00018D5E80616D57FF01000216808610820C0
:1021C00020772068C06910F4407F03D0200000F021
:1021D000EEFC05E0200000F0EBFC200000F0E9FC44
:1021E00000202077F00708D5E80706D57FF001002A
:1021F00021680861200000F0F9FD16F4025F08D0A4
:10220000280606D57FF4025021680861200000F0FE
:102210000DFEF00508D5280606D57FF480702168EC
:102220000861200000F003FE700608D5680606D598
:102230007FF0400021680861200000F0F9FDB00641
:1022400008D5A80606D57FF0200021680861200087
:1022500000F0EFFD70BDF8B504000D00160000277A
:1022600094F83C00012801D10220A4E0012084F868
:102270003C00300000280AD004281FD0082835D0A0
:102280000C284AD0102860D0142875D08CE0290082
:10229000206800F089F92068806950F00800216802
:1022A00088612068806930F00400216888612068B6
:1022B0008169286901432068816177E029002068ED
:1022C00000F0C0F92068806950F4006021688861DE
:1022D0002068806930F480602168886120688069A6
:1022E000296950EA0120216888615FE0290020689F
:1022F00000F0EFF92068C06950F008002168C8615B
:102300002068C06930F004002168C8612068C16994
:10231000286901432068C16148E02900206800F075
:102320001EFA2068C06950F400602168C861206806
:10233000C06930F480602168C8612068C06929697B
:1023400050EA01202168C86130E02900206800F0CF
:102350003BFA2068406D50F008002168486520680D
:10236000406D30F00400216848652068416D28699F
:1023700001432068416519E02900206800F051FA06
:102380002068406D50F40060216848652068406D09
:1023900030F48060216848652068406D296950EA02
:1023A00001202168486501E001200700002084F831
:1023B0003C003800C0B2F2BDF8B504000D000026A4
:1023C00094F83C00012801D1022081E0012084F82A
:1023D0003C00022084F83D0020688768DFF89C04F8
:1023E000074037F47F47206887602868002860D05E
:1023F00010285ED020285CD030285AD040284ED0FB
:10240000502838D0602840D0702819D0B0F5805FAF
:1024100015D0B0F5005F21D0B0F5801F49D0B0F1E4
:10242000101F46D0DFF8B414884242D0DFF8B01451
:1024300088423ED0DFF8AC1488423AD03EE03FE01C
:10244000EB686A68A968206800F064FA2068806810
:1024500050F0770007002068876031E0EB686A6819
:10246000A968206800F056FA2068806850F480401F
:102470002168886024E0EA686968206800F000FA52
:102480005021206800F021FA1AE0EA6869682068A3
:1024900000F008FA6021206800F017FA10E0EA68FE
:1024A0006968206800F0ECF94021206800F00DFA1E
:1024B00006E02968206800F008FA01E00120060023
:1024C000012084F83D00002084F83C003000C0B2B8
:1024D000F2BD10B40468DFF81034984212D0B0F1A5
:1024E000804F0FD0DFF8042490420BD0DFF8002497
:1024F000904207D0DFF8FC23904203D0DFF8F823A6
:10250000904203D134F070044A68144398421ED0BC
:10251000B0F1804F1BD0DFF8D423904217D0DFF802
:10252000D023904213D0DFF8CC2390420FD0DFF8B5
:10253000C82390420BD0DFF8C423904207D0DFF8C5
:10254000C023904203D0DFF8BC23904203D134F47F
:102550004074CA68144334F080044A691443046028
:102560008A68C2620A68826298420FD0DFF88823C4
:1025700090420BD0DFF88423904207D0DFF880230D
:10258000904203D0DFF87C23904201D10A690263B4
:10259000012242610269D20703D502695208520042
:1025A000026110BC7047000070B4036A026A5208EE
:1025B0005200026244688569DFF84C231540AD087B
:1025C000AD000A68154333F002038A681343DFF84D
:1025D0001863B0420FD0DFF8202390420BD0DFF811
:1025E0001C23904207D0DFF81823904203D0DFF875
:1025F0001423904205D133F00803CA68134333F023
:102600000403B0420FD0DFF8F02290420BD0DFF885
:10261000EC22904207D0DFF8E822904203D0DFF8A6
:10262000E422904207D134F4807434F400744A698F
:1026300014438A691443446085614A6842630362B3
:1026400070BC704770B4036A026A32F01002026212
:1026500044688569DFF8B422154035F440750A688E
:1026600055EA022533F020038A6853EA0213DFF8A3
:102670007822904203D0DFF88062B04206D133F076
:102680008003CE6853EA061333F0400390420FD024
:10269000DFF8642290420BD0DFF86022904207D02E
:1026A000DFF85C22904203D0DFF85822904209D133
:1026B00034F4806434F400644A6954EA82048A6918
:1026C00054EA8204446085614A688263036270BC94
:1026D000704770B4036A026A32F48072026244681E
:1026E000C569DFF824221540AD08AD000A6815431E
:1026F00033F400738A6853EA0223DFF8EC21904236
:1027000003D0DFF8F461B04206D133F40063CE6841
:1027100053EA062333F4806390420FD0DFF8D821C8
:1027200090420BD0DFF8D421904207D0DFF8D021BF
:10273000904203D0DFF8CC21904209D134F4805488
:1027400034F400544A6954EA02148A6954EA0214BF
:102750004460C5614A68C263036270BC704730B4AC
:10276000036A026A32F4805202624468C569DFF883
:102770009C21154035F440750A6855EA022533F46A
:1027800000538A6853EA0233DFF85C2190420FD08D
:10279000DFF8642190420BD0DFF86021904207D02F
:1027A000DFF85C21904203D0DFF85821904204D139
:1027B00034F480444A6954EA82144460C5614A682A
:1027C0000264036230BC704730B4036A026A32F4B8
:1027D000803202624468456DDFF82C2115400A689A
:1027E000154333F400338A6853EA02433E4A904269
:1027F0000BD0414A904208D0404A904205D0404A0E
:10280000904202D03F4A904204D134F480344A6965
:1028100054EA0224446045654A688265036230BC1C
:10282000704730B4036A026A32F48012026244686C
:10283000456D364A15400A6855EA022533F40013FF
:102840008A6853EA0253284A90420BD02A4A90429F
:1028500008D02A4A904205D0294A904202D0294AFB
:10286000904204D134F480244A6954EA82244460BA
:1028700045654A68C265036230BC704788FFCEFF79
:1028800010B4046A036A5B085B000362836933F077
:10289000F00353EA021334F00A040C438361046228
:1028A00010BC704710B4046A036A33F0100303626B
:1028B000836933F4704353EA023334F0A00454EADA
:1028C00001148361046210BC70478368104A13408E
:1028D0000B4353F007038360704700002000100093
:1028E00030001000400010000000014000040040D3
:1028F00000080040000C004000040140004001407E
:1029000000440140004801408FFFFEFFFF8FFFFEA3
:102910008FFFCFFF10B4846834F47F440C4314431A
:1029200054EA0324846010BC704730B4012411F0D1
:102930001F0314FA03F3046A9C430462046A11F04F
:102940001F0512FA05F52C43046230BC70470EE0F7
:1029500002684368024408305FEAC37C44BF4B44CA
:102960005B1E52F804CB43F804CB091FF9D150F891
:10297000041B0029ECD1704710B58EB01021002245
:102980000AAC200000F056FA0C2100226C46200010
:1029900000F050FA1C21002203AC200000F04AFA9B
:1029A0007A4C5FF080402060794860600020A06031
:1029B0006320E060002020610020A0612000FFF77C
:1029C0008DF9002801D000F02FFA4FF480500A90C2
:1029D0000AA92000FFF7F0FC002801D000F024FA3B
:1029E0002000FFF719FA002801D000F01DFA00209E
:1029F0000090002002906946200000F04FFA002865
:102A000001D000F011FA6020039000200490002013
:102A1000059000200790002203A92000FFF71BFC6F
:102A2000002801D000F000FA200000F088F80EB075
:102A300010BD10B58CB02421002203AC200000F0A2
:102A4000F9F90C2100226C46200000F0F3F9514CFA
:102A500051482060002060600020A0604FF6FF70A9
:102A6000E060002020610020A06101200390002090
:102A7000049001200590002006900020079000207F
:102A800008900120099000200A9000200B9003A9D3
:102A90002000FFF7C5FA002801D000F0C5F900209A
:102AA0000090002002906946200000F0F7F900280D
:102AB00001D000F0B9F90CB010BD81B00168B1F1DE
:102AC000804F09D135490A6852F001020A6009684D
:102AD00011F001010091009901B0704738B586B03E
:102AE00004001421002201AD280000F0A3F92068A1
:102AF0002949884221D12948016851F00201016029
:102B0000006810F00200009000982548016851F01C
:102B100002010160006810F002000090009830206F
:102B200001900220029000200390002004900220D7
:102B3000059001A91B4800F013FA07B030BD38B565
:102B400086B004001421002201AD280000F072F9C3
:102B50002068B0F1804F17D11148016851F0010190
:102B60000160006810F001000090009801200190C1
:102B70000220029000200390002004900120059084
:102B800001A9094800F0ECF907B030BD78460020F3
:102B90007FA90300C446002000040040E844025816
:102BA000E044025800040258000002587047704781
:102BB0007047704738B592490868800312D4BFF354
:102BC0004F8FBFF36F8F00208E4A1060BFF34F8F7F
:102BD000BFF36F8F086850F400300860BFF34F8F69
:102BE000BFF36F8F0868C00325D40020864B1860A0
:102BF000BFF34F8F85480368C3F34E34C3F3C90056
:102C0000020043F6E07010EA441050EA8270804DF2
:102C100028601000421E0028F3D12000441E002826
:102C2000ECD1BFF34F8F086850F480300860BFF3D9
:102C30004F8FBFF36F8F00F0C5FA00F01FF800F060
:102C4000ACF800F003FB00F0DBFB00F057FC00F0F9
:102C5000D1FCFFF791FE00F055FD00F07FFD00F084
:102C600051FE00F087FEFFF7E4FE00F027FF00F0C2
:102C700033FF00F048FF00F06EFFFEE710B59CB098
:102C80004C21002209AC200000F0D4F820210022C1
:102C900001AC200000F0CEF8022000F09DFF0020E3
:102CA00000905C480168490849000160016811F022
:102CB0000101009158490A6852F440420A600A68CA
:102CC00012F440420092009A0A689204FCD5534ADA
:102CD000136853F002031360126812F002020092AC
:102CE000009A002200920A6852F440420A600A6880
:102CF00012F440420092026852F001020260006841
:102D000010F001000090009808688004FCD500F0E5
:102D100095FF00F082FA4248016831F01801016025
:102D2000052009905FF4A0200A9001200B9002205A
:102D30001290022013900120149078201590022008
:102D4000169014201790022018900C201990002043
:102D50001A9000201B9009A800F078FF002801D0ED
:102D600000F062F83F2001900320029000200390C1
:102D70000820049040200590402006904FF4806089
:102D8000079040200890042101A8FEF7EBFB0028E3
:102D900001D000F049F81CB010BD10B5B0B0C02192
:102DA00000226C46200000F045F84FF4005000214E
:102DB000CDE90001012002907820039002200490C8
:102DC0001420059002200690C02007900020089053
:102DD000002009905FF4803019906846FDF75CFA96
:102DE000002801D000F020F830B010BD10B504006C
:102DF00020680C49884201D101F0A8FA10BD0000FA
:102E000014ED00E050EF00E084ED00E080ED00E024
:102E100060EF00E02C04005818480258F4440258AF
:102E2000704402580014004072B6FEE770477047C5
:102E30007047704762F30F2262F31F42401810F090
:102E4000030308D0C91A1FD3DB0748BF00F8012DC0
:102E500028BF20F8022D130030B41446154610394F
:102E600028BF20E93C00FAD8490728BF20E90C0018
:102E700048BF40F8042D890028BF20F8022D48BF24
:102E800000F8012D30BC7047C91818BF00F8012D9B
:102E9000CB0728BF00F8012D7047000070B4020076
:102EA00092F83C00012801D1022047E0012082F87D
:102EB0003C00022082F83D00106843681068846876
:102EC000204D1068A84203D01068224EB04203D1B2
:102ED00033F470034868034333F070030868034316
:102EE000106843601068A8421BD01068B0F1804F92
:102EF00017D01068144DA84213D01068134DA84283
:102F00000FD01068124DA8420BD01068114DA84286
:102F100007D01068104DA84203D010680F4DA8428A
:102F200005D134F08004886804431068846001206F
:102F300082F83D00002082F83C00002070BC704701
:102F400000000000000001400004004000080040B4
:102F5000000C004000040140001800400040014007
:102F6000F8B503000025DFF824620868E84000286F
:102F700000F0FE800127D1F800C017FA05F010EA32
:102F80000C0C6246002A00F0F180087910F0030072
:102F9000012804D0087910F0030002281BD1D3F8CF
:102FA00008C05FF0030E68001EFA00FE3CEA0E0C3B
:102FB000D1F80CE068001EFA00FE5EEA0C0CC3F8C3
:102FC00008C05868AF40B8434F68C7F30017AF4018
:102FD000384304005C60087910F00300032810D027
:102FE000DF685FF0030C68001CFA00FC37EA0C078E
:102FF000D1F808C068001CFA00FC5CEA07073C0036
:10300000DC60087910F0030002281AD12800C008FB
:1030100003EB8000006A0F275FEA850C1CF01C0C94
:1030200017FA0CF7B8430F695FEA850C1CF01C0C0B
:1030300017FA0CF7384304002800C00803EB80009F
:1030400004621F685FF0030C68001CFA00FC37EA9A
:103050000C0791F804C01CF0030C68001CFA00FC7B
:103060005CEA07073C001C60486810F4403F7DD0D4
:10307000DFF81C01076857F002070760006810F0CE
:10308000020000900098DFF80C712800800857F8C3
:1030900020005FF00F0C5FEA850E1EF00C0E1CFA8C
:1030A0000EFC30EA0C00DFF8F0C0634501D10024CB
:1030B0002EE0DFF8E840A34201D1012428E0384C9B
:1030C000A34201D1022423E0364CA34201D10324C0
:1030D0001EE0354CA34201D1042419E0334CA34235
:1030E00001D1052414E0324CA34201D106240FE0A3
:1030F000304CA34201D107240AE02F4CA34201D156
:10310000082405E02D4CA34201D1092400E00A2443
:103110005FEA850C1CF00C0C14FA0CF420432C0014
:10312000A40847F824005FF0B0473C689443D1F806
:1031300004C05FEACC2C00D514433C60204F3868B3
:103140009043D1F804C05FEA8C2C00D5104338605E
:10315000776897434C68A40300D5174377603468B9
:1031600094434868C00300D5144334606D1CFCE6EA
:10317000F1BD1300DBB2002B03D00B009BB28361C7
:1031800003E00B009BB21B04836170478000005872
:10319000F444025808040058000002580004025881
:1031A00000080258000C025800100258001402587F
:1031B00000180258001C025800200258002402582F
:1031C0000400005810B50320FEF75EFDFEF712FB69
:1031D0000400DFF86000DFF860100268C2F3032229
:1031E0008A5C12F01F02D440006810F00F00085CE7
:1031F00010F01F002100C140DFF840000160DFF83F
:10320000400004600F20FEF789FC002801D0012057
:1032100002E001F0A7F8002010BDDFF828000068E8
:10322000000C704708490A6832F4600202430A60E1
:103230007047000018440258DC7900080C00002098
:10324000080000200010005C040400582DE9F84339
:1032500086B014220021684601F098F861480168A0
:1032600051F010010160016811F0100105910599FC
:10327000016851F004010160016811F00401059139
:103280000599016851F020010160016811F02001E9
:1032900005910599016851F080010160016811F004
:1032A000800105910599016851F0010101600168F3
:1032B00011F0010105910599016851F002010160C9
:1032C000016811F0020105910599016851F0400172
:1032D0000160016811F0400105910599016851F004
:1032E00008010160006810F00800059005983E4C48
:1032F00000224FF480712000FFF73BFF44F20105EC
:103300003A4E002229003000FFF733FF384F0022E9
:1033100003213800FFF72DFFDFF8D88000224FF49B
:1033200080614046FFF725FFDFF8CC9000220221A4
:103330004846FFF71EFF4FF4005000900020019018
:103340000020029069462D48FFF70AFE4FF4807076
:103350000090012001900020029000200390694617
:103360002000FFF7FDFD0095012001900020029054
:103370000020039069463000FFF7F2FD0320009023
:10338000012001900020029000200390694638003F
:10339000FFF7E6FD4FF480600090012001900020CF
:1033A00002900020039069464046FFF7D9FD802037
:1033B00000905FF488100190002002906946380068
:1033C000FFF7CEFD02200090012001900020029026
:1033D0000020039069464846FFF7C2FD07B0BDE8EC
:1033E000F08300BFE0440258001402580004025861
:1033F00000180258000C0258001002580008025829
:1034000080B5394839490160092101710221C17132
:103410000021817102214172012181720021C1725A
:103420000021017301214173012181730021C173C6
:1034300000F0B6FF002801D0FFF7F6FC01BD38B55B
:10344000B6B004001421002201AD2800FFF7F2FC01
:10345000C021002206AD2800FFF7ECFC20682349BC
:1034600088423FD15FF480200021CDE906015FF45E
:103470008010289006A8FCF70FFF002801D0FFF766
:10348000D3FC00F0D1FB1A48016851F00101016042
:10349000006810F00100009000984FF4C8500190AF
:1034A0000220029000200390002004900A20059042
:1034B000104D01A92800FFF753FD4FF40070019053
:1034C000002002900020039001A92800FFF748FD8A
:1034D0000948016851F000610160006810F0006067
:1034E0000090009837B030BD143C00200000084028
:1034F000E044025800000258D844025810B586B083
:103500001421002201AC2000FFF794FC04210022CA
:103510006C462000FFF78EFC334C344820600020BE
:1035200060607F20A060FF20E0600020206100201C
:10353000A0610020E06100206061200000F0EAFF4F
:10354000002801D0FFF770FC00208DF80400002057
:103550008DF8050000208DF8060000200490002062
:103560000590012201A9200001F035F8002801D0C2
:10357000FFF75AFC01208DF8000001208DF80100B2
:1035800001208DF8020000208DF803000122694619
:10359000200001F0CEF8002801D0FFF745FC06B06E
:1035A00010BD38B5B0B00400C02100226D4628001F
:1035B000FFF740FC20680D49884213D15FF480007A
:1035C0000021CDE900014FF480702D906846FCF792
:1035D00063FE002801D0FFF727FC0548016851F47D
:1035E0000041016031B030BD6C4700200040005800
:1035F0007044025810B53E4C3E4820605FF4E13004
:1036000060600020A0600020E060002020610C20AD
:1036100060610020A0610020E061002020620020A5
:1036200060620020A062200001F0A2F9002801D011
:10363000FFF7FAFB0021200001F02FFE002801D047
:10364000FFF7F2FB0021200001F052FE002801D01C
:10365000FFF7EAFB200001F0FDFD002801D0FFF795
:10366000E3FB10BD38B5B6B004001421002201AD53
:103670002800FFF7DFFBC021002206AD2800FFF77E
:10368000D9FB20681B4988422FD102200021CDE9B7
:1036900006010020249006A8FCF7FEFD002801D0BA
:1036A000FFF7C2FB1448016851F4802101600068F3
:1036B00010F48020009000981048016851F0080133
:1036C0000160006810F00800009000984FF440700E
:1036D0000190022002900020039000200490072017
:1036E000059001A90648FFF73BFC37B030BD00004C
:1036F000A843002000480040E8440258E044025833
:10370000000C025880B51248124901600021017175
:10371000002141710021416100218161012101628B
:1037200001F050FE002801D0FFF77EFB01BD81B003
:103730000168084A914209D107490A6852F40022F7
:103740000A60096811F400210091009901B07047E6
:1037500048470020004C0258E0440258F8B55E4843
:103760005E4901605E4900220A7080224A70E122AF
:103770008A700022CA7000220A7100224A714160D8
:10378000012101725749C1605FF04051016140F26F
:10379000F451416101F05EFE002801D0FFF744FBC7
:1037A00038240025504E37002A0021003800FFF74A
:1037B00041FB212030605FF44030706100203061B7
:1037C000F1BD38B586B00400142100226D462800F2
:1037D000FFF730FB2068414988427AD143480168AD
:1037E00051F400410160016811F40041059105990F
:1037F000016851F480310160016811F48031059154
:103800000599016851F400310160006810F400303E
:10381000059005983648016851F00401016001687F
:1038200011F0040105910599016851F00101016051
:10383000016811F0010105910599016851F002013B
:103840000160016811F0020105910599016851F0CC
:1038500040010160006810F040000590059832209A
:1038600000900220019000200290002003900B2085
:10387000049069461F48FFF773FB862000900220E2
:10388000019000200290002003900B2004906946D4
:103890001948FFF765FB4FF400500090022001909B
:1038A00000200290002003900B20049069461348EA
:1038B000FFF756FB4FF420500090022001900020AB
:1038C0000290002003900B20049069460C48FFF7FB
:1038D00047FB07B030BD0000F842002000800240E6
:1038E000084800200002003010470020D844025849
:1038F000E044025800080258000002580004025830
:103900000018025880B56548654901605FF4800180
:103910004160002181600721C16000210161002117
:1039200041615FF0005181610021C16100210162AC
:1039300000214162002181620021C1625FF080416B
:103940004163002181630021C163002101640021E2
:103950004164002181640021C164002101650021CE
:1039600041650021816502F08BF8002801D0FFF746
:103970005BFA01BD80B54B484B4901605FF48001A3
:1039800041605FF4C02181600721C16000210161B5
:10399000002141615FF0806181615FF0A041C16100
:1039A0005FF4000101620021416200218162002177
:1039B000C1625FF080414163002181630021C163E6
:1039C0000021016400214164002181640021C1645F
:1039D00000210165002141650021816502F050F858
:1039E000002801D0FFF720FA01BD38B586B00400E9
:1039F000142100226D462800FFF71CFA2068284990
:103A0000884222D12948016851F4005101600068C0
:103A100010F40050059005982548016851F01001F8
:103A20000160006810F01000059005987420009067
:103A300002200190002002900020039005200490B5
:103A400069461C48FFF78CFA26E020681649884230
:103A500022D11648016851F480110160006810F409
:103A60008010059005981248016851F0200101600E
:103A7000006810F02000059005984FF42070009029
:103A80000220019000200290002003900520049065
:103A900069460948FFF764FA07B030BDC844002002
:103AA000003401405045002000500140F0440258CD
:103AB000E0440258001002580014025880B502F089
:103AC00001FB04485A21026851630021FEF7E1F925
:103AD00001BD00BF7846002080B5012201210548C4
:103AE000FFF747FB02F029FB4FF47A7002F054FB1A
:103AF000F3E700BF000402580A4B03600A4B0B6057
:103B000080231360704700B587B0684607491C22C0
:103B100002F066FB0021684600F022F804490860C4
:103B200007B000BDD8450020F84000205C790008AF
:103B30001848002010B50400012000F041F8FBE710
:103B4000010000200A0012B2842A03D00A0012B237
:103B5000D21C1018704780B502F0E9FC002002BDAD
:103B600038B584B004000D006069002813D0A06946
:103B7000002810D0B4F90800FFF7E2FFA169029114
:103B80006169019100902B0022692168606802F050
:103B90006BFB039011E0B4F90800FFF7D1FF03A914
:103BA000019100902B00226992B22168606802F0B6
:103BB000A8FB012801D0002000E0039805B030BD2B
:103BC00038B505002C00002C01D0200000E00120B9
:103BD00002F086FC002032BD38B50400DFF8540046
:103BE0000168490708D4006810F00700A04201D01E
:103BF000012018E0002016E00168C908C90021432F
:103C00000160FDF7A9FC0500DFF82C0000688004C6
:103C100008D4FDF7A1FC401B40F2E9318842F3D300
:103C2000012000E0002032BD0248016851F080719F
:103C3000016070470C480258044802580248016865
:103C400051F4807101607047004802582DE9F04737
:103C50000400002C01D101205DE32078C0076DD560
:103C6000DFF8B806056815F03805DFF8B406D0F8B7
:103C70000090102D05D0182D0DD119F00300022849
:103C800009D1DFF8A0060068800357D560680028D6
:103C900054D101203FE36068B0F5803F06D1DFF8E2
:103CA0008406016851F48031016026E060680028D4
:103CB0000AD1DFF87006016831F4803101600168D3
:103CC00031F48021016018E06068B0F5A02F0AD1BE
:103CD000DFF85006016851F480210160016851F459
:103CE0008031016009E0DFF83C06016831F4803181
:103CF0000160016831F480210160606800280ED005
:103D0000FDF72AFC0600DFF81C060068800315D4C6
:103D1000FDF722FC801B6528F5D30320FBE2FDF7AD
:103D20001BFC0600DFF8FC050068800306D5FDF7E4
:103D300013FC801B6528F5D30320ECE22078800774
:103D400040F1AC80DFF8D405056815F03805DFF8E0
:103D5000D005D0F80090002D04D0182D48D119F0CE
:103D6000030F45D1DFF8BCA5DAF80000400704D501
:103D7000E068002801D10120CDE2DAF8001031F02E
:103D80001901E0680143CAF80010FDF7E5FB0600E1
:103D9000DAF80000400706D4FDF7DEFB801B03289D
:103DA000F6D30320B7E2FFF738FA41F20401884264
:103DB00014D22069402807D1DFF86C052021026861
:103DC00061F31132026012E0DFF85C05016831F442
:103DD0007C31226951EA0231016008E0DFF84805D0
:103DE000016831F0FE41226951EA0261016055E04B
:103DF000E06800283CD0DFF82CA5DAF8001031F09C
:103E00001901E0680143CAF80010FDF7A5FB0600A0
:103E1000DAF80000400706D4FDF79EFB801B03285C
:103E2000F6D3032077E2FFF7F8F941F20401884264
:103E300014D22069402807D1DFF8EC042021026861
:103E400061F31132026012E0DFF8DC04016831F442
:103E50007C31226951EA0231016008E0DFF8C804D0
:103E6000016831F0FE41226951EA0261016015E00A
:103E7000DFF8B0A4DAF8000040084000CAF80000FB
:103E8000FDF76AFB0600DAF80000400706D5FDF7EB
:103E900063FB801B0328F6D303203CE22078C00696
:103EA00040F19480DFF87404056815F03805DFF8F8
:103EB0007004D0F80090082D05D0182D32D119F0DB
:103EC000030001282ED1DFF85C040068C00504D58A
:103ED000E069802801D001201DE2FFF79EF941F240
:103EE0000401884214D2206A202807D1DFF8380460
:103EF0001021026861F39E62026012E0DFF828047C
:103F0000016831F0F841226A51EA8261016008E0FB
:103F1000DFF81804016831F07C51226A51EA02612D
:103F2000016053E0E06900283AD0DFF8F8A3DAF83E
:103F3000000050F08000CAF80000FDF70DFB0600FD
:103F4000DAF80000C00506D4FDF706FB801B032845
:103F5000F6D30320DFE1FFF760F941F20401884264
:103F600014D2206A202807D1DFF8BC031021026890
:103F700061F39E62026012E0DFF8AC03016831F089
:103F8000F841226A51EA8261016008E0DFF89C038F
:103F9000016831F07C51226A51EA0261016015E04A
:103FA000DFF880A3DAF8000030F08000CAF80000E3
:103FB000FDF7D2FA0600DAF80000C00506D5FDF7D5
:103FC000CBFA801B0328F6D30320A4E12078000756
:103FD00028D56069002812D0DFF85453286850F0C3
:103FE00001002860FDF7B8FA06002868800719D498
:103FF000FDF7B2FA801B0328F7D303208BE1DFF82B
:1040000030532868400840002860FDF7A5FA0600F4
:104010002868800706D5FDF79FFA801B0328F7D391
:10402000032078E12078800626D5A069002811D0E9
:10403000BC4D286850F480502860FDF78DFA0600CA
:104040002868800418D4FDF787FA801B0328F7D36B
:10405000032060E1B34D286830F480502860FDF7FC
:104060007BFA06002868800406D5FDF775FA801BE8
:104070000328F7D303204EE12078400764D5DFF80A
:10408000B492D9F8000050F48070C9F80000FDF730
:1040900063FA0500D9F80000C00506D4FDF75CFA04
:1040A000401B6528F6D3032035E1A068012805D11F
:1040B000A148016851F00101016022E0A0680028D8
:1040C00009D19D480168490849000160016831F043
:1040D0000401016015E0A068052809D1964801682F
:1040E00051F004010160016851F00101016008E034
:1040F00091480168490849000160016831F00401F4
:104100000160A06800280FD0FDF726FA06008A4853
:104110000068800718D4FDF71FFA801B41F289312F
:104120008842F4D30320F6E0FDF716FA0600824831
:104130000068800708D5FDF70FFA801B41F289312E
:104140008842F4D30320E6E0606A002800F0E280B1
:104150007248006810F03800182800F08A80606A01
:10416000022874D1DFF8BC91D9F8000030F08070DB
:10417000C9F80000FDF7F0F90500D9F8000080014A
:1041800006D5FDF7E9F9401B0328F6D30320C2E06A
:1041900063490A6869480240A06A0243E06A52EA39
:1041A00000120A60206B401EC005C00D616B491EE5
:1041B000490211F47E410843A16B491E090411F420
:1041C000FE010843E16B491E090611F0FE41084358
:1041D0005B4908605B4908684008400008605A482D
:1041E00002686FF3CF02A36C52EAC30202600A684E
:1041F00032F00C02206C02430A600A6832F00202BC
:10420000606C02430A60086850F4803008600868F7
:1042100050F400300860086850F480200860086896
:1042200050F001000860D9F8000050F08070C9F823
:104230000000FDF791F90600D9F80000800169D46B
:10424000FDF78AF9801B0328F6D3032063E0354D80
:10425000286830F080702860FDF77EF90600286835
:10426000800157D5FDF778F9801B0328F7D3032089
:1042700051E02B480168324800688046606A012896
:1042800022D011F00300A26A90421DD1C1F30510A3
:10429000E26A904218D15FEAC850C00D226B521EEC
:1042A000904211D1C8F34620626B521E90420BD14E
:1042B000C8F30640A26B521E904205D1C8F30660B7
:1042C000E26B521E904201D0012024E01E4D28686E
:1042D000C0F3CC07A06CB8421CD0DFF86890D9F8C6
:1042E000000040084000C9F80000FDF735F906005D
:1042F000FDF732F9801B0028FAD028686FF3CF0051
:10430000A16C50EAC1002860D9F8000050F001000B
:10431000C9F800000020BDE8F08700BF1044025833
:104320002844025800440258044402580C440258DD
:104330007444025800480258704402580CFCFFFFB5
:10434000304402582C44025834440258034801684F
:10435000034A127889180160704700BF384800206E
:104360001000002080B50848016851F0020101608A
:10437000006810F002000090009800220F217FF0EA
:104380000100FDF787FC01BDF444025810B5044656
:1043900010460A4601462046FEF74CFD204610BD59
:1043A00038B50400002C01D10120B2E094F8950446
:1043B000002805D1002084F894042000FFF73FF87E
:1043C000032084F89504206802F092FB211D83B03D
:1043D00068460D2201F0F4FE0EBC206802F03CFBA2
:1043E000002804D0022084F89504012091E00021E7
:1043F000206802F084FB002804D0022084F8950491
:10440000012086E0002001002279C9B291422DD21C
:1044100024210200D2B24A432244012353750200F0
:10442000D2B24A43224410750200D2B24A43224417
:104430000300DBB2D3850200D2B24A4322440023F8
:1044400013760200D2B24A4322440023D361020011
:10445000D2B24A432244002313620200D2B201FBCB
:1044600002F1214400224A62401CCCE700252800CA
:104470002179C0B288422CD224202900C9B24143FC
:104480002144002281F855222900C9B24143214428
:1044900081F854522900C9B241432144002281F8D5
:1044A00058222900C9B2414321440022C1F85C22AC
:1044B0002900C9B2414321440022C1F860222900E9
:1044C000C9B200FB01F020440021C0F864126D1C49
:1044D000CDE7211D83B068460D2201F071FE0EBCB0
:1044E000206802F044FB002804D0022084F89504E0
:1044F00001200EE000206074012084F89504207BE8
:10450000012802D1200002F0C5FC206802F082FCE4
:10451000002032BD38B504000125002C58D094F895
:104520002100002805D1002084F820002000FFF79A
:1045300038F8022084F821002068C068C0063ED404
:10454000CA2021684862532021684862200000F098
:1045500096F905002800C0B200281AD120688168A9
:10456000DFF8C003014020688160206881686068CE
:10457000014320690143A069014320688160A0686C
:10458000E16851EA004120680161200000F09DF9D6
:1045900005002800C0B200280DD12068C06C80083A
:1045A00080002168C8642068C16CE06901436069CB
:1045B00001432068C164FF202168486201E00020B7
:1045C00005002800C0B2002802D1012084F8210093
:1045D0002800C0B232BD2DE9F04705000E001400DE
:1045E00095F82000012801D102206DE0012085F816
:1045F0002000022085F82100CA2029684862532043
:1046000029684862280000F03AF980464046C0B266
:1046100000284AD1002C20D128688068400601D4A7
:104620000020F070307800F089F98246707800F050
:1046300085F98146B07800F081F95FFA8AFA5FFA6D
:1046400089F95FEA092959EA0A49C0B250EA090919
:10465000F07859EA80594F4610E028688068400693
:1046600001D40020F07030787178090251EA0041DD
:10467000B0780143F07851EA80510F00DFF8A802CA
:104680003840296808602868806830F480202968EC
:10469000886028688168F0680143306901432868B0
:1046A0008160280000F011F98046FF2029684862E7
:1046B0004046C0B2002802D1012085F82100002028
:1046C00085F820004046C0B2BDE8F087F8B5050087
:1046D0000E0014002868806A706028680069400431
:1046E000400CB06028680768DFF83C0207403800DB
:1046F000000C10F03F0030703800000A10F07F000E
:10470000707017F07F00B0703800800D10F001005D
:10471000F070002C0BD1307800F01EF930707078FA
:1047200000F01AF97070B07800F016F9B07000203F
:10473000F2BD2DE9F04105000E00140095F82000AF
:10474000012801D1022058E0012085F82000022034
:1047500085F82100002C07D17078C00604D5707848
:1047600010F0EF000A307070002C16D1F07800F0D5
:10477000E5F88046707800F0E1F80700B07800F0C6
:10478000DDF85FFA88F8FFB23F0257EA0847C0B287
:104790000743307857EA403709E0F07877783F02EE
:1047A00057EA0047B0780743307857EA4037CA20C5
:1047B00029684862532029684862280000F05FF8A1
:1047C00080464046C0B2002808D1DFF8600138407A
:1047D00029684860280000F078F88046FF202968A2
:1047E00048624046C0B2002802D1012085F821006D
:1047F000002085F820004046C0B2BDE8F081F8B541
:1048000005000E00140028684768DFF82001074003
:104810003800000CF0703800000A10F01F007070B3
:1048200017F03F00B0703800400B10F007003070F8
:10483000002C0BD1F07800F08FF8F070707800F059
:104840008BF87070B07800F087F8B0700020F2BD7F
:1048500038B5040036482168C860FCF77DFE0500C5
:104860002068C068800608D4FCF776FE401B40F242
:10487000E9318842F4D3032000E0002032BD70B556
:10488000040000262068C06840061BD45FF0FF309B
:104890002168C860FCF760FE05002068C06840061B
:1048A00010D43000C0B203280CD0FCF755FE401BDA
:1048B00040F2E9318842F0D303200600032084F857
:1048C0002100EAE73000C0B270BD70B504000025D9
:1048D0001848016831F080010160174E3068800689
:1048E0000AD42000FFF7B4FF002817D0032084F873
:1048F00021000320050011E0306830F02000306016
:104900002000FFF7A5FF002804D0032084F8210031
:1049100003200500306850F0200030602800C0B24D
:1049200070BD0000BFFF8FFF7F7F7F003FFFFF0054
:104930005FFF03000C4000580840005801000022AF
:1049400008000300DBB20A2B02D3521C0A38F8E736
:1049500050EA0210C0B270470100C9B209090A2228
:1049600011FB02F110F00F004018C0B270470000B8
:1049700010B50400002C01D1012037E0A069002807
:10498000FFD1D4F88800002805D1002084F88400E5
:104990002000FEF767FE2420C4F888002068006825
:1049A0004008400021680860A06A002802D020006A
:1049B00000F0D6FA200000F01AF8012801D10120F9
:1049C00014E02068406830F4904021684860206816
:1049D000806830F02A00216888602068006850F004
:1049E000010021680860200000F027FB10BD2DE9C0
:1049F000F84F86B005000026DFF860152868884269
:104A0000FFD0AA682869024368690243E869024343
:104A100028680368DFF8F807034013432868036039
:104A20002868436833F44053E868034328684360C8
:104A3000D5F818902868884202D0286A50EA0909F7
:104A400028688268DFF8CC07024059EA0202286829
:104A500082602868C26A12091201686A02432868E3
:104A6000C2622868DFF8B02790421FD1DFF8AC0798
:104A7000006810F0380000280AD008280AD0102852
:104A80000AD018280AD020280AD028280AD00BE0FB
:104A9000012724E1042722E1082720E110271EE155
:104AA00020271CE140271AE1802718E12868DFF859
:104AB000702790421DD1DFF86407006810F00700EE
:104AC000002808D002280AD007D304280BD008D326
:104AD00005280AD00BE0002701E10427FFE00827A2
:104AE000FDE01027FBE02027F9E04027F7E08027D2
:104AF000F5E02868DFF82C2790421DD1DFF81C076D
:104B0000006810F00700002808D002280AD007D358
:104B100004280BD008D305280AD00BE00027DEE0DC
:104B20000427DCE00827DAE01027D8E02027D6E0C9
:104B30004027D4E08027D2E02868DFF8EC269042B6
:104B40001DD1DFF8D806006810F00700002808D053
:104B500002280AD007D304280BD008D305280AD08E
:104B60000BE00027BBE00427B9E00827B7E01027D7
:104B7000B5E02027B3E04027B1E08027AFE0286808
:104B8000DFF8A82690421DD1DFF89006006810F0EB
:104B90000700002808D002280AD007D304280BD029
:104BA00008D305280AD00BE0002798E0042796E0F8
:104BB000082794E0102792E0202790E040278EE01D
:104BC00080278CE02868DFF8682690421FD1DFF844
:104BD0004C06006810F0380000280AD008280AD0D7
:104BE00010280AD018280AD020280AD028280AD04D
:104BF0000BE0012773E0042771E008276FE010271E
:104C00006DE020276BE0402769E0802767E0286897
:104C1000DFF8202690421DD1DFF80006006810F072
:104C20000700002808D002280AD007D304280BD098
:104C300008D305280AD00BE0002750E004274EE0F7
:104C400008274CE010274AE0202748E0402746E0AC
:104C5000802744E02868DFF8E02590421DD1DFF886
:104C6000BC05006810F00700002808D002280AD010
:104C700007D304280BD008D305280AD00BE000275F
:104C80002DE004272BE0082729E0102727E0202724
:104C900025E0402723E0802721E0286888421DD1B5
:104CA000DFF89805006810F00700002808D00228F7
:104CB0000AD007D304280BD008D305280AD00BE06C
:104CC00002270CE004270AE0082708E0102706E086
:104CD000202704E0402702E0802700E080272868A2
:104CE00088426CD13800C0B202280AD004280CD007
:104CF00008280FD0102812D020281FD0402820D0FC
:104D000022E0FCF7BBF8040021E003A8FCF7C6F89A
:104D1000049C1CE06846FCF7D9F9019C17E0DFF819
:104D200020050168890606D5DFF818450068C0F33C
:104D3000C100C44001E0DFF80C4508E0DFF8084599
:104D400005E04FF4004402E0002401200600002C9E
:104D500000F0F480DFF8F414686A31F81000B4FB56
:104D6000F0F082466A6803204243924503D36868A4
:104D70000003504502D201200600DFE0686A31F8E6
:104D80001000B4FBF0F200231B0243EA126312028C
:104D9000686840080021101859416A68002302F031
:104DA0008DF88046B8F5407F06D3B8F5801F03D252
:104DB0002868C0F80C80C1E001200600BEE0E86968
:104DC000B0F5004F62D13800C0B200280CD00128E5
:104DD0000ED0042810D0082813D0102816D0202870
:104DE00023D0402824D026E0FCF72BFE040025E049
:104DF000FCF734FE040021E003A8FCF74FF8049C04
:104E00001CE06846FCF762F9019C17E0DFF830040B
:104E10000168890606D5DFF82C440068C0F3C1009C
:104E2000C44001E0DFF81C4408E0DFF81C4405E062
:104E30004FF4004402E0002401200600002C7DD045
:104E4000DFF80804696A30F81100B4FBF0F0696813
:104E5000490811EB40016868B1FBF0F08046B8F1F9
:104E6000100F10D3B8F5803F0DD24FF6F07111EA54
:104E700008014046C0F3420001438B46584680B2C9
:104E80002968C8605AE00120060057E03800C0B227
:104E900000280CD001280ED0042810D0082813D0E8
:104EA000102816D0202823D0402824D026E0FCF754
:104EB000C8FD040025E0FCF7D1FD040021E003A8B3
:104EC000FBF7ECFF049C1CE06846FCF7FFF8019C34
:104ED00017E0DFF86C030168890606D5DFF8644344
:104EE0000068C0F3C100C44001E0DFF8584308E0A7
:104EF000DFF8544305E04FF4004402E000240120B1
:104F00000600002C1AD0DFF84403696A30F811005B
:104F1000B4FBF0F0696810EB51006968B0FBF1F088
:104F20008046B8F1100F07D3B8F5803F04D2404651
:104F300080B22968C86001E0012006000120A5F8C0
:104F40006A000120A5F86800002068670020A867B3
:104F50003000C0B207B0BDE8F08F0000000C005870
:104F600090F82810090707D501684A6832F4004212
:104F7000816B0A4301684A6090F82810C90707D579
:104F800001684A6832F40032C16A0A4301684A6023
:104F900090F82810890707D501684A6832F48032F2
:104FA000016B0A4301684A6090F82810490707D549
:104FB00001684A6832F48022416B0A4301684A6002
:104FC00090F82810C90607D501688A6832F4805223
:104FD000C16B0A4301688A6090F82810890607D5DA
:104FE00001688A6832F40052016C0A4301688A60E1
:104FF00090F82810490613D501684A6832F48012E7
:10500000416C0A4301684A60416CB1F5801F07D1C9
:1050100001684A6832F4C002816C0A4301684A6040
:1050200090F82810090607D501684A6832F4002272
:10503000C16C0A4301684A60704738B5040000201B
:10504000C4F89000FCF788FA0500206800680007A3
:105050001ED57FF07E4000902B0000225FF40011EF
:10506000200000F055F8002812D0206850E8000F0A
:1050700030F080000100226842E800100028F4D1DE
:105080002020C4F88800002084F8840003203EE03B
:105090002068006840072CD57FF07E4000902B00F0
:1050A00000225FF48001200000F032F8002820D0B8
:1050B000206850E8000F30F490700100226842E848
:1050C00000100028F4D12068083050E8000F400894
:1050D00040000100206810F1080242E8001000289A
:1050E000F1D12020C4F88C00002084F88400032033
:1050F0000DE02020C4F888002020C4F88C00002097
:10510000E06600202067002084F88400002032BD83
:105110002DE9F04105000E0090461F00069C28680E
:10512000C0693040B04201D1012000E0002041467A
:10513000C9B2884238D114F1010FF0D0FCF70CFA53
:10514000C01B844201D3002C01D103202DE028682C
:1051500000684007E3D5802EE1D0402EDFD02868DC
:10516000C06900070DD5082029680862280000F0F2
:105170001EF80820C5F89000002085F88400012062
:1051800013E02868C0690005C9D54FF4006029689C
:105190000862280000F00BF82020C5F890000020DD
:1051A00085F88400032000E00020BDE8F08101685C
:1051B00051E8001F31F490710A00036843E80021B0
:1051C0000029F4D10168083151E8003FDFF8801070
:1051D0000B401A00016811F1080343E8002100297F
:1051E000F0D1C16E01290AD1016851E8001F31F0E8
:1051F00010010A00036843E800210029F4D12021AE
:10520000C0F88C100021C166002141677047000082
:10521000F369FFCFFFF4FF1100100140544402581E
:105220000044004000480040004C00400050004056
:105230000014014000780040007C004058440258AF
:10524000004402580090D00300093D00B0790008E6
:10525000FEFFFFEF010091F88400012801D1022038
:105260001AE0012081F884002420C1F88800086831
:10527000026808680068400840000B68186032F057
:10528000005200204866086802602020C1F88800AB
:10529000002081F884000020704770B504000D00E4
:1052A00094F88400012801D1022020E0012084F834
:1052B00084002420C4F888002068066820680068FC
:1052C00040084000216808602068806820F0604045
:1052D000284321688860200000F035F820680660C7
:1052E0002020C4F88800002084F88400002070BDCD
:1052F00070B504000D0094F88400012801D102204B
:1053000020E0012084F884002420C4F8880020686C
:10531000066820680068400840002168086020682E
:10532000806830F06060284321688860200000F0C9
:105330000AF8206806602020C4F88800002084F85D
:105340008400002070BDF0B4416E002906D1012117
:10535000A0F86A100121A0F868102DE010210A00C1
:1053600010210B0001688968490E11F007010C003B
:1053700001688968490F0D00104E114F9C465FFA75
:105380008CFC2900C9B2795C01FB0CFC2900C9B274
:10539000715C9CFBF1F1A0F86A1094465FFA8CFCFA
:1053A0002100C9B2795C01FB0CFC2100C9B2715C1F
:1053B0009CFBF1F1A0F86810F0BC70471C7A000863
:1053C000147A000810B50400002C01D101203DE042
:1053D000607F002804D1002020772000FEF7A7F985
:1053E000022060772079002809D119482168486196
:1053F0002068806830F018002168886008E0E26862
:10540000A168200001F072FE002801D001201DE0FB
:105410006079002804D15FF0FF302168086102E064
:105420002069216808612068816831F06001606945
:105430000143206881602068816831F08001A069A3
:1054400001432068816001206077002010BD0000CA
:10545000B71DC1047CB50400002C01D10120AAE0D5
:10546000D4F88400002805D12320C4F8840020004B
:10547000FEF7A7F9DFF8A001016851F00201016011
:10548000006810F0020000900098207A002803D1F4
:105490000020FDF7C7FE03E05FF40000FDF7C2FE49
:1054A000DFF8780100684FF480562068805950F08A
:1054B000010021688851FCF74FF8050020688059E9
:1054C000C0070ED5FCF748F8401B40F2F5118842A2
:1054D000F4D30420C4F88800E020C4F8840001203C
:1054E00069E0200000F068F8FCF790FADFF830116E
:1054F000B0FBF1F0401E2168C1F8DC00200000F094
:10550000C7F94FF4885002212268125861F394427F
:1055100021680A50207D10F0030F07D00120C4F845
:105520008800E020C4F88400012044E041F2081023
:10553000216809586FF34E01626951EA42012268FD
:105540001150200000F03AFA200000F061FA606883
:1055500040796168097951EA00212068C0F8001398
:105560006068C07861688978090451EA0061606800
:10557000407851EA00216068007801432068C0F853
:1055800004132068D0F80C17DFF898000143206856
:10559000C0F80C172068D0F8100740F0406050F4B5
:1055A00003102168C1F810070020C4F888001020FB
:1055B000C4F88400002076BD38B504002068D0F817
:1055C000005235F47065FCF721FADFF8901288423A
:1055D00002D255F400751AE0DFF88412884202D234
:1055E00055F4407513E0DFF87C1288420FD3DFF8E2
:1055F0007812884202D255F4807508E0DFF86C1208
:10560000884202D255F4806501E055F4A065216816
:10561000C1F8005231BD0000F4440258040400589F
:1056200040420F006000020CF0B40200087C002829
:1056300001D1012400E00024487C002801D101268A
:1056400000E00026887F002801D1012500E0002528
:1056500091F82000002801D1012700E000278B6885
:1056600008680343087953EAC063087B53EAC053D0
:10567000487B53EA8053887B53EA4053C87B53EA04
:10568000005353EAC44353EA4643887C53EA004339
:105690004869034388690343087F53EA0033487F1E
:1056A00053EAC02353EA8523C87F53EA402353EAD1
:1056B0000723486A034391F8280053EA0013C86A95
:1056C0000343106804686A4804401C43106804607F
:1056D00091F83200002801D1012000E00020CC6BBD
:1056E00091F838301B0653EA446391F8304053EA8E
:1056F000844391F8314053EA444353EA0043486BF2
:105700000343106844685B4804401C4310684460CD
:1057100091F840004C6C54EA00241068C568564863
:10572000054025431068C56091F84C00002801D160
:10573000012000E0002091F854400B6D53EA44032F
:1057400053EAC013886C53EA00431068046F4FF6A5
:105750000D7004401C431068046791F8564091F89E
:10576000550054EA40041068D0F89000800880008A
:1057700020431568C5F890001068D0F8005D35F03A
:105780007205886D05431068C0F8005D91F86000EF
:10579000002801D1012300E00023C86D50EA8310E6
:1057A00091F8613050EA031091F8623050EAC3007A
:1057B0001368D3F8303D33F07B0303431468C4F817
:1057C000303DF0BC7047F0B44FF480530268D458B9
:1057D0002A4A14400A6814430268D4500A798B6834
:1057E00053EA02330A7B53EAC23341F204040268EB
:1057F0001559234A15401D43026815514A7B0C6A0E
:1058000054EA02444FF48855026856591D4A16401E
:105810002643026856510D690A7D55EA02154A7FF2
:1058200055EA023541F2041602689759164A1740A4
:105830002F43026897510A7F8E6956EAC27641F279
:105840000817026852F807C0104A12EA0C0C56EA10
:105850000C0C026842F807C0F0BC7047C00E16027C
:105860000087930300E1F50580D1F00880B2E60ED1
:10587000838004000080F8C0F0FEFFFFFD87FFFF7B
:10588000FE2FFFFF00C0FEFFEFEFC0FFFFFFC07F56
:1058900010B5A2B0040001208DF80F00002009907F
:1058A00000208DF81D0000208DF81F0001208DF8CC
:1058B000040001208DF8320001208DF80E00002038
:1058C0008DF8280001208DF860004FF400500690FC
:1058D00000208DF8380000200F9000208DF8610026
:1058E00000208DF862004FF4C3600D9000208DF809
:1058F0000C000020029001208DF8110000208DF88E
:10590000120000208DF81C0000201490002012903E
:1059100000200B9000208DF8400000208DF85600EC
:1059200001208DF81E002020179001208DF8200006
:1059300000208DF831005FF0405000904FF480401F
:10594000059000208DF80D000220169000208DF8A3
:10595000540000208DF8550000208DF83000012003
:105960008DF810000020119001208DF84C00694640
:105970002000FFF759FE01208DF8680001201B90E0
:105980000020199000208DF8800000208DF8710013
:1059900000208DF870005FF400101F9000218DF83A
:1059A00078101D9000208DF881004FF40670219032
:1059B00019A92000FFF707FF22B010BD30B4002264
:1059C000042A12D2C368182404FB02F423441900E9
:1059D00000230B6000234B6000238B600023CB600F
:1059E00000EB82039961521CEAE7002383620323E0
:1059F000046841F22C156351C368046841F2141520
:105A00006351C368046814F58954236030BC70473F
:105A100030B40022042A16D20369182404FB02F4CD
:105A20002344190000230B6000234B6000238B608C
:105A30000023CB6000230B6100234B6100EB82034A
:105A40009964521CE6E70023C36500230366002324
:105A500083660023C366002383650323046841F241
:105A6000301563510369046841F21C1563510369E1
:105A70004833046841F22815635130BC7047000078
:105A800070B50400002C01D10120C7E0606A002835
:105A90000020A062624E2068B0420DD020686149AB
:105AA000884209D02068DFF83414884204D0E068C6
:105AB000102801D30120B1E0200000F09DFA05007C
:105AC0002068B0420AD020685649884206D0206833
:105AD000DFF80814884201D0092D0DD22068B042A9
