:020000040800F2
:10000000684C0020A1560008895600088B5600084D
:100010008D5600088F560008915600080000000019
:100020000000000000000000000000002154000853
:100030009356000800000000C95300081D53000833
:10004000BD560008C1560008C5560008C95600082C
:10005000CD560008D1560008D5560008D9560008DC
:10006000DD560008E1560008E5560008E95600088C
:10007000ED560008F1560008F5560008F95600083C
:10008000FD560008015700080557000809570008E9
:100090000D57000811570008155700081957000898
:1000A0001D57000821570008255700082957000848
:1000B0002D570008315700083557000839570008F8
:1000C0003D570008415700084557000849570008A8
:1000D0004D57000851570008555700085957000858
:1000E0005D570008615700080000000065570008D0
:1000F000695700086D5700087157000875570008C8
:10010000795700087D570008815700088557000877
:10011000895700088D570008915700089556000828
:1001200095570008995700089D570008A1570008E7
:10013000A5570008A9570008AD570008B157000897
:1001400000000000000000000000000000000000AF
:10015000B5570008B9570008BD570008C157000837
:10016000C5570008C9570008CD570008D1570008E7
:10017000D5570008D9570008DD57000800000000D7
:10018000E1570008E5570008E9570008ED57000857
:10019000F1570008F5570008F9570008FD57000807
:1001A0000158000805580008095800080D580008B3
:1001B0001158000815580008195800081D58000863
:1001C0002158000825580008295800082D58000813
:1001D0003158000835580008395800083D580008C3
:1001E0004158000845580008495800084D58000873
:1001F0005158000855580008595800085D58000823
:100200006158000865580008695800086D580008D2
:100210007158000875580008795800087D58000882
:10022000815800088558000889580008000000001F
:100230008D580008915800080000000095580008EB
:10024000995800089D580008A1580008A5580008B2
:10025000A9580008AD580008B1580008B558000862
:10026000B9580008BD580008C1580008C558000812
:10027000C9580008CD580008D158000800000000F7
:10028000D5580008D9580008DD58000800000000C3
:1002900000000000E15800082DE9F047044600275F
:1002A000D4E900010201B846DFF8D45722D5A36E85
:1002B0004BB1B3F5801F0BD0B3F5001F15D0B3F5CC
:1002C000401F09D014E0EA6942F40032EA6105E017
:1002D000022100F0D1FB074638000AD1296CA06E3C
:1002E00021F440110143296404E000F0BFFBF2E770
:1002F0000127B846D4E90001C2051CD5A36D042B23
:1003000017D8DFE803F0030E1205050000F0A4FB88
:1003100038000FD1296CA06DC90840EAC1012964D9
:1003200009E000F0A8FB0746F2E7002100F09AFB85
:10033000F9E70127B846D4E90001820520D5E36D2D
:100340004BB1402B12D0802B14D0C02B18BFB3F56B
:10035000807F02D012E000F07FFB38000FD1296CC3
:10036000E06D21F4E0710143296409E000F083FBB2
:100370000746F2E7002100F075FBF9E70127B846D0
:10038000D4E90001420504F1840623D5736A63B100
:10039000B3F5001F14D0B3F5800F15D0B3F5C00F1F
:1003A00018BFB3F5000F02D012E000F055FB380083
:1003B0000FD1A96C706A21F460010143A96409E0BE
:1003C00000F059FB0746F2E7002100F04BFBF9E78C
:1003D0000127B846D4E90001020523D5B36A63B109
:1003E000B3F1807F14D0B3F1007F15D0B3F1407F1B
:1003F00018BFB3F1806F02D012E000F02DFB38007F
:100400000FD1A96CB06A21F0E0610143A96409E051
:1004100000F031FB0746F2E7002100F023FBF9E78B
:100420000127B846D4E9000182011AD5E36C43B133
:10043000102B04D0202B0DD0302B02D00FE000F079
:100440000BFB38000CD1E96BE06C21F0300101436B
:10045000E96306E0022100F00FFB0746F1E7012700
:10046000B846D4E90001C20423D5236E63B1B3F5C5
:10047000805F14D0B3F5005F15D0B3F5405F18BFAF
:10048000B3F5804F02D012E000F0E6FA38000FD149
:10049000296C206E21F4E0410143296409E000F059
:1004A000EAFA0746F2E7002100F0DCFAF9E7012753
:1004B000B846D4E90001820422D5636E93B1B3F546
:1004C000803F0BD0B3F5003F15D0B3F5403F1CBFC4
:1004D000B3F5802FB3F5A02F04D00FE0012100F079
:1004E000CBFA074638000AD1296C606E21F4E0216E
:1004F0000143296404E000F0B4FAF2E70127B846AA
:10050000D4E90001420422D5F36A93B1B3F1805FCC
:100510000BD0B3F1005F15D0B3F1405F1CBFB3F156
:10052000804FB3F1A04F04D00FE0012100F0A4FAF6
:10053000074638000AD1A96CF06A21F0E041014376
:10054000A96404E000F08DFAF2E70127B846D4E987
:10055000000102041AD5236F43B1B3F1805F03D0C9
:10056000B3F1005F0BD00FE000F076FA38000CD149
:10057000296C206F21F040510143296406E00121DC
:1005800000F07AFA0746F1E70127B846D4E90001FE
:10059000C20118D5A36C032B13D8DFE803F00402C3
:1005A0000D0400F059FA38000CD1E96BA06C8908F1
:1005B00040EA8101E96306E0022100F05DFA0746A6
:1005C000F1E70127B846D4E9000142023FD5DFF840
:1005D0009896D9F8003043F48073C9F8003000F0E1
:1005E00033FC8246D9F80000C10506D400F02CFC8B
:1005F000A0EB0A006528F5D327E0380026D1286E45
:10060000316B00F4407001F4407188420BD0286EC9
:10061000296E41F4803129662A6E20F4407022F45C
:1006200080322A662866306BB0F5807F2BD100F0CF
:100630000BFC8146286E810725D400F005FCA0EB59
:10064000090041F289329042F4D30327B846217859
:10065000CA0738D5E06F68B1082807D010282DD018
:1006600018281CBF2028282804D02AE0012100F0E7
:1006700003FA0746380025D1696CE06F21F0380194
:10068000014369641FE0306B00F44071B1F5407FB5
:1006900009D12A68DFF8D41501EA101122F47C523E
:1006A0000A432A6003E0286820F47C502860296E01
:1006B000306BC0F30B0001432966C8E700F0D1F9A5
:1006C000D7E70127B84621788A0719D5A06F0528F2
:1006D00014D8DFE800F0070310070707012100F036
:1006E000CBF9074638000AD1696CA06FC90840EA07
:1006F000C101696404E000F0B4F9F2E70127B846EB
:1007000021784A0719D53069052814D8DFE800F0A8
:10071000070310070707012100F0AEF9074638006C
:100720000AD1A96C3069C90840EAC101A96404E092
:1007300000F097F9F2E70127B84621788A0621D51B
:10074000F06888B1B0F1805F0BD0B0F1005F14D0D9
:10075000B0F1405F1CBFB0F1804FB0F1A04F03D0AB
:100760000EE000F088F9074638000AD1696CF0689D
:1007700021F0E0410143696404E000F077F9F2E719
:100780000127B84621784A0621D5B06988B1B0F56D
:10079000806F0BD0B0F5006F14D0B0F5406F1CBF68
:1007A000B0F5805FB0F5A05F03D00EE000F063F914
:1007B000074638000AD1A96CB06921F4E051014321
:1007C000A96404E000F052F9F2E70127B846217865
:1007D0000A0621D5F06988B1B0F5005F0BD0B0F5FD
:1007E000804F14D0B0F5C04F1CBFB0F5004FB0F52E
:1007F000204F03D00EE000F03EF9074638000AD142
:10080000A96CF06921F460410143A96404E000F09F
:100810002DF9F2E70127B84621780A070ED530688E
:10082000B0F5805F04D100F021F908B14FF0010864
:100830006A6C306822F4405202436A642178CA0626
:100840000ED57069B0F5807F04D100F00FF908B1C2
:100850004FF00108A96C726921F440711143A96439
:10086000D4E90001030319D5326A32B1B2F5803FF1
:100870000FD0B2F5003F03D00EE000F0FCF80746C1
:1008800038000AD1A96C306A21F440310143A964CF
:1008900004E000F0EBF8F2E70127B846D4E90001E4
:1008A00043031BD57268B2F5801F06D0B2F5001F56
:1008B0000ED0B2F5401F02D00EE000F0CDF83800A7
:1008C0000BD1696C706821F440110143696405E043
:1008D00000F0C7F80746F2E70127B846D4E900015F
:1008E000C30317D5226D1AB1B2F5803F0BD00FE0CC
:1008F00000F0B2F838000CD1E96B206D21F48031A2
:100900000143E96306E0022100F0B6F80746F1E78B
:100910000127B846D4E90001830004D500F0A6F809
:1009200008B14FF00108D4E9000182031CD5D4F8C6
:1009300080306BB1B3F5807F06D0B3F5007F18BF70
:10094000B3F5407F04D00DE0EA6942F40032EA6179
:100950003A0008D16B6CD4F8802023F44073134321
:100960006B6401E00127B846C20205D52B6C626FAB
:1009700023F0004313432B64C30005D52F68726B2B
:1009800027F4804717432F60830205D52F6CE26E52
:1009900027F0807717432F6443000AD52F6827F488
:1009A00000472F60D5F800C0B26B42EA0C0CC5F8C6
:1009B00000C0002805D5EF6B626D27F04057174344
:1009C000EF63030205D56F6CB26827F44007174345
:1009D0006F6411F0010104D000F04DF8010018BF60
:1009E0008046D4E9000111F0020305D0012100F096
:1009F00043F8010018BF8046D4E9000111F0040358
:100A000005D0022100F038F8010018BF8046D4E973
:100A1000000111F0080305D0002100F023F80100C7
:100A200018BF8046D4E9000111F0100304D000F093
:100A300018F8010018BF8046D4E9000111F0200326
:100A400002D000F013F820B9B8F1000F08BF002061
:100A500000D00120BDE8F087E86940F40030E8618B
:100A60007047012104F1280000F062B9022104F16D
:100A7000280000F05DB9002104F1080000F002B97F
:100A80001044025880B500F068FBDFF8B423DFF8AB
:100A9000B4131368C3F30212895C01F01F01C8404C
:100AA00002BD000030B500F082F8C2F30015DA6B29
:100AB000C1F3053100F0B5F81DD000F07EF802D08A
:100AC000022C06D008E000F0B5F8996B00F04CF865
:100AD00007E09FED672A01E09FED662A996B00F021
:100AE00053F8996B00F08CF8996B00F07AF8996BD9
:100AF00000F06AF801E000F031F82BE030B500F0CA
:100B000056F8C2F300255A6CC1F3055100F089F87C
:100B10001DD000F052F802D0022C06D008E000F000
:100B200089F8196C00F020F807E09FED512A01E0E8
:100B30009FED502A196C00F027F8196C00F060F84E
:100B4000196C00F04EF8196C00F03EF801E000F06E
:100B500005F800BF80ED020A30BD000000229FEDC5
:100B6000460A026042607047F7EE001AC1F30801BE
:100B700001EE101AB8EE411A31EE000A70EE211A99
:100B800020EEA10A70470000DFED3C1AC2EE200AF9
:100B9000C1F3080101EE101AB8EE411A00EE211A55
:100BA000B7EE000A31EE000A20EE800A7047DFF847
:100BB0008C329C6A996ADA6A704714F0030400EE7A
:100BC000901AF8EE600A7047C1F3066100EE901AC1
:100BD000F8EE600A70EE810A80EE200ABCEEC00AD0
:100BE0007047C1F3064100EE901AF8EE600A70EE0D
:100BF000810AC0EE200AFCEEE00AC0ED010A70474F
:100C0000B7EE001AC1F3462100EE901AF8EE600A22
:100C100070EE810AC0EE200AFCEEE00AC0ED000A88
:100C20007047C2F3CC025543002900EE105AB8EECB
:100C3000400A704719689FED111A20EE010A8A06D2
:100C40000CD51968DFF8F041C1F3C101CC4001EEC9
:100C5000104AB8EE411AC1EE200A70479FED082AEB
:100C6000C2EE200A7047000000480258CFFFFF0084
:100C70000024F44A0024744A0000000000000039F7
:100C80000024744CF8B500F0AFF801D10120F2BD9A
:100C9000286820F0806000F0C7F80746296808013E
:100CA00006D500F0D1F8C01B0328F7D30320F2BD0E
:100CB000A86A316820F47C3040EA013000F09CF8EA
:100CC000A863E96A706921F0C00100F0B0F8B0696A
:100CD00021F0200100F0ABF821F01001E962E86B8F
:100CE00000F07CF8E863E86A40F01000E8621CB9A4
:100CF000E86A40F4002004E0012C04D1E86A40F4E2
:100D00008010E86203E0E96A41F40011E9622868B2
:100D100040F0806000F088F804462968080105D496
:100D200000F092F8001B0328F7D3BFE70020F2BDC4
:100D3000F8B500F059F801D10120F2BD286820F083
:100D4000805000F071F807462968880006D500F049
:100D50007BF8C01B0328F7D30320F2BDA86A3168D3
:100D600020F07C7040EA015000F046F82864E96AFF
:100D7000706921F4406100F05AF8B06921F4007103
:100D800000F055F821F48071E962686C00F026F8F3
:100D90006864E86A40F48070E8621CB9E86A40F46C
:100DA000800004E0012C04D1E86A40F40000E8620D
:100DB00003E0E96A41F08071E962286840F0805000
:100DC00000F032F804462968880005D400F03CF8A9
:100DD000001B0328F7D3BFE70020F2BDF1696FF3D2
:100DE000CF0040EAC10070470646144DA86A0C4681
:100DF00000F0030003287047A862B1687068F268C9
:100E0000491E4902401EC0F30800521E01F47E41F3
:100E100012040843316902F4FE021043491E090618
:100E200001F0FE4108437047286000F00DB801430F
:100E3000E962E96A704700000090D003004402585C
:100E4000204402583C55000801484068704700BFE4
:100E50000C0000202DE9F0410400884656D0DFF850
:100E6000B863306800F00F00404502D200F0EBF8A4
:100E70007AD12078DFF8A453410706D52069AA6902
:100E800002F07002824200F0D7F82078010706D500
:100E90006069EA6902F07002824200F0C6F82078C8
:100EA000C10606D5A069EA6902F4E062824200F058
:100EB000B5F82078810606D5E0692A6A02F070024A
:100EC000824200F0A4F82078810706D5E068AA697C
:100ED00002F00F02824200F093F82078C10731D56A
:100EE000AA69A06822F470620243AA6160680228BD
:100EF00002D129688A0308E0032802D129688A01FF
:100F000003E0012803D12968CA0503D42CE02B682B
:100F1000590729D52A69D20840EAC2002861FFF79B
:100F200093FF07462869616800F03800B0EBC10FF5
:100F300008D0FFF789FFC01B41F289329042F1D3FC
:100F400003205BE02078810706D5E068AA6902F0FB
:100F50000F02904200F054F8306800F00F00804516
:100F600004D200F070F801D0012047E0207841075A
:100F700006D52069AA6902F07002904200F05CF880
:100F80002078010706D56069EA6902F07002904294
:100F900000F04BF82078C10606D5A069EA6902F492
:100FA000E062904200F03AF82078810606D5E069C8
:100FB0002A6A02F07002904200F029F800F04EF820
:100FC000AA69DFF86C12C2F303228B5CAC69DFF80C
:100FD000505204F00F04095D03F01F03D840DFF8FE
:100FE000443201F01F0120FA01F21A602860DFF894
:100FF0003C020068BDE8F04100F026B9BDE8F08190
:1010000004D2A969090940EA0110A861704704D215
:10101000296A21F0700108432862704704D2E96907
:1010200021F4E0610843E861704704D2E96921F0E6
:1010300070010843E861704704D2A96921F070018A
:101040000843A86170473168090948EA0111316015
:10105000326802F00F0242457047000030B56F4B16
:101060007148196911F0380104D010290AD01829E3
:101070000AD069E01A68940667D51968C1F3C101FE
:10108000C84030BD6C4830BD9C6A996ADD6A5A6BB5
:1010900005F00105C1F30511C2F3CC025543002947
:1010A00000EE105AB8EE400A4CD014F0030400EEE3
:1010B000901AF8EE600A02D0022C20D022E01968C3
:1010C0009FED511A20EE010A8A0608D51968C1F36E
:1010D000C101C84000F03CF8C1EE200A03E09FEDDA
:1010E0004B2AC2EE200A186BF7EE001A00F02EF819
:1010F00031EE000A70EE211A20EEA10A13E09FEDF6
:10110000442A01E09FED432A186BDFED3F1AC2EE3F
:10111000200A00F01BF800EE211AB7EE000A31EEAB
:10112000000A20EE800A186BC0F34620401C00EE37
:10113000900AF8EE600A80EE200ABCEEC00A10EEBB
:10114000100A30BD002030BD3C4830BDC0F308005F
:1011500001EE100AB8EE411A704710B5FFF77EFF96
:101160003749334B0A6809682D4CC2F303229A5C55
:1011700001F00F0102F01F02D0402060595C294AA3
:1011800001F01F01C840106010BD80B5FFF7E5FFFA
:1011900000F00FF8C3F3021206E080B5FFF7DDFFA1
:1011A00000F007F8C3F30222895C01F01F01C84078
:1011B00002BD244A1E491368704710B53F220260E1
:1011C0001C4A136803F007034360946804F47064D6
:1011D0008460936803F00F03C360946804F07004A4
:1011E0000461D36803F070034361D46804F4E064DD
:1011F0008461126902F07002C2610748036803F05B
:101200000F030B6010BD0000000000390024744C77
:101210000024F44A0024744A00200052004402587A
:10122000180000201C0000200090D00314000020B3
:101230003C5500081044025800127A0000093D0095
:10124000184402581C44025810B50446102C8AB0A9
:1012500035D200222146372000F058F8372000F020
:1012600073F8184804601848016841F020010160D3
:10127000026801A902F020020092009802A8FFF77C
:101280009CFF079810B9FFF780FF02E0FFF77DFF92
:1012900040000E4B0E4C0F4940F2E732B0FBF3F02A
:1012A0002160401E60600021E26020462161A16053
:1012B00000F060F818B9204600F069F800E001205D
:1012C0000AB010BD14000020E844025840420F004C
:1012D00034470020001400400901020002D42048D5
:1012E000815470471F4B02F00F021A4402F8041C8D
:1012F00070471D4B4FF6FF021968000200F4E060D2
:1013000011400843194908431860704770B5164BDF
:101310001C68C4F302230124C3F10705052D2EBF69
:101320000F2504FA05F56D1E1E1D072E34BF002380
:10133000DB1E2940994004FA03F35B1E1A40114357
:10134000BDE87040C8E70000010007D4012200F0AA
:101350001F018A40064B400943F8202070470000D7
:1013600000E400E018ED00E00CED00E00000FA05FC
:1013700000E100E038B5040001D1012032BD00F0E9
:101380008BF818B900F084F800F0FDFC4BE010B5C4
:1013900090F83D10012901D0012010BD022280F8F3
:1013A0003D200168DFF8C820CB6843F00103CB6023
:1013B0000168914218BFB1F1804F17D0DFF8B43007
:1013C00099421CBFDFF8B02091420FD0DFF8AC404B
:1013D000A1421CBFDFF8A830994207D0DFF8A42053
:1013E00091421CBFDFF8A040A14208D100F00EF8E6
:1013F00018BFB2F5803F07D000F00EF804E00B46AE
:101400001A6842F001020A60002010BD8A68DFF805
:101410007C100A40062A70470268116841F00101F9
:101420001046016070470220211D6870206800F09E
:1014300036FA0120012128730122A970EA7028716F
:101440006971AA71E87129726A72A8720020E97242
:101450006A7032BD38B5040001D1012032BD00F000
:101460001BF818B900F014F800F0FAFCDBE70000F4
:10147000000001400004004000080040000C004053
:101480000004014000180040004001400700010036
:10149000002120462970704704F13C0568787047A8
:1014A000F8B504000E4601D10120F2BDFFF7F4FFAC
:1014B00018B9FFF7EDFF00F077FC0222DFF8F00229
:1014C0006A7021688B6803408B602068211D00F0E2
:1014D000E6F92268DFF8DC129368D2F818C0176AC0
:1014E000B06801EA0C010843B16927F0AA0740EA95
:1014F0000120DFF8C4120140F0680843F16940EAB6
:101500000120316940EA0110316A40EA013C70680B
:101510003168074370690B430121936047EA001764
:101520002068C0F818C022680120176201222973C0
:10153000A870EA702972687200206A70F2BDF8B56E
:1015400004462068C5680669B10714D5AA0712D5F4
:101550006FF00203012103612177806910F0030F0E
:10156000204602D000F07DFC03E000F07BFC00F0A0
:1015700087F800202077710715D5680713D52068F4
:101580006FF00401022201612277806910F4407F2C
:10159000204602D000F065FC03E000F063FC00F0A0
:1015A0006FF800202077310715D5280713D520685C
:1015B0006FF00801042201612277C06910F0030F67
:1015C000204602D000F04DFC03E000F04BFC00F0A0
:1015D00057F800202077F10615D5E80613D52068C6
:1015E0006FF01001082201612277C06910F4407F7A
:1015F000204602D000F035FC03E000F033FC00F0A0
:101600003FF80020207706F0010105F001021142A9
:1016100006D027686FF001003861204600F036FDE3
:1016200016F4025F08D0280606D522686FF402512E
:101630002046116100F042FDF00508D5290606D5C7
:1016400020686FF480720261204600F038FD710658
:1016500008D5680606D521686FF0400220460A6169
:1016600000F02EFDB0060AD5A90608D520686FF057
:10167000200202612046BDE8F24000F022BDF1BD2B
:10168000204600F01FBD002084F83C00284670472B
:1016900070B500F085F801D1022070BD012184F8F9
:1016A0003C1052B1042A1AD0082A2BD00C2A3BD065
:1016B000102A4CD0142A5CD06EE02068314600F02D
:1016C0004EF92168886940F0080088618A6922F033
:1016D00004028A618B69306903438B615DE0206895
:1016E000314600F07EF92068816941F40061816132
:1016F000826922F4806282618169326941EA022151
:1017000081614AE02068314600F0AAF92168C86981
:1017100040F00800C861CA6922F00402CA61CB69BE
:1017200030690343CB6138E02068314600F0D2F9DC
:101730002068C16941F40061C161C26922F480621C
:10174000C261C169326941EA0221C16125E02068B4
:10175000314600F0E7F92168486D40F0080048651F
:101760004A6D22F004024A654B6D306903434B65B4
:1017700013E02068314600F0FFF92068416D41F424
:1017800000614165426D22F480624265416D3269BB
:1017900041EA0221416500E00125FFF774FF70BDB9
:1017A0000446002594F83C000E46012870470000CE
:1017B000F8BFFEFFFCFCFFFF0303FFFFF8B5064682
:1017C00006F13C0528780024012801D10220F2BD51
:1017D000012202232A70DFF854046B703268936888
:1017E000034093600868070018BF102841D02028E4
:1017F00018BF30283DD0402837D050282AD0602844
:101800002CD0702817D0B0F5805F38D0B0F5005FCD
:1018100018D0B0F5801F18BFB0F1101F29D0DFF825
:10182000101488421FBFDFF80C148842DFF8081438
:1018300088421ED022E000F02CF83068816841F028
:10184000770105E000F025F83068816841F48041B7
:10185000816014E000F019F850210BE0CA68496873
:10186000306800F0C9F9602104E000F00EF8402172
:1018700000E00146306800F0D1F900E001240120C9
:101880000021687020462970F2BDCA684968306836
:10189000A0E1CB684A688968306800F0E9B92DE9B1
:1018A000F043DFF898C3D0F800E0DFF89443DFF8A6
:1018B0009453DFF89463DFF89473DFF89433DFF820
:1018C0009483DFF89493604518BFB0F1804F07D040
:1018D000484518BF404503D0984218BFB8420ED1C2
:1018E0004A682EF0700E604542EA0E0E18BFB0F145
:1018F000804F0CD048451CBF4045984207D0B842A5
:1019000018BFB04203D0A84218BFA04204D1CB6890
:101910002EF4407243EA020E4A692EF080036045BD
:1019200042EA030EC0F800E08B68C362D1F800E021
:10193000C0F828E018BFB84204D0B0421CBFA8428B
:10194000A04201D109690163012242610169CB070B
:1019500003D50269520852000261BDE8F0832DE907
:10196000F041076A026ADFF8F442DFF8D082DFF85C
:10197000D8C2DFF8D8E25208520002624568866990
:101980000B688A6827F002072640DFF8B8421E433A
:10199000DFF8AC321743404518BF704504D06045AE
:1019A0001CBFA04298420DD1CA6827F00807174310
:1019B00027F00407404518BF704505D0604518BFA3
:1019C000A04201D0984205D14B6925F440758A693F
:1019D0001D43154345608661496841630762BDE860
:1019E000F081F0B5036A026A22F0100202624468D4
:1019F00085690E68DFF868228F6823F020031540A0
:101A0000DFF8482245EA0625DFF8306243EA07138B
:101A1000B04218BF904208D1CF6823F08003B04293
:101A200043EA071323F040030DD090421CBFDFF8B8
:101A30001822904207D0DFF80C62B0421CBFDFF8DA
:101A40000072B84206D14E698A6924F44064164394
:101A500044EA860444608561496881630362F0BD9D
:101A6000F0B5046A026ADFF8F43122F4807202628F
:101A70004568C6690A688F6824F400741E406F4B7D
:101A80001643DFF8C82144EA0724984218BF904261
:101A900008D1CF6824F40064984244EA072424F46F
:101AA00080640AD090421CBF674A904205D0654BC3
:101AB00098421CBF624FB84206D14B698A6925F42F
:101AC0004055134345EA03154560C6614968C16343
:101AD0000462F0BDF0B5036A026A22F48052026229
:101AE0004468C5690E688F685D4A23F4005300F0AE
:101AF0006BF843EA07331CBF544EB04207D0524F35
:101B0000B8421FBF4F4A90424D4EB04204D14A697D
:101B100024F4804444EA82144460C5614968016445
:101B20000362F0BDF0B5046A026A4E4B22F48032C3
:101B300002624568466D0A688F6824F400341E40CE
:101B40003E4B1643984244EA07441CBF3F4A90422A
:101B500007D03D4FB8421FBF3A4B9842384A904297
:101B600004D14B6925F4803545EA03254560466577
:101B7000496881650462F0BDF0B5036A026A22F427
:101B8000801202624468456D0E688F68364A23F4FD
:101B9000001300F019F843EA07531CBF2B4EB04264
:101BA00007D0294FB8421FBF264A9042244EB04268
:101BB00004D14A6924F4802444EA822444604565BF
:101BC0004968C1650362F0BD15401C4A45EA062517
:101BD0009042704730B5036A046A64086400046286
:101BE000856923F00A03194325F0F00545EA02153B
:101BF000FFE78561016230BD30B5036A046A24F0F5
:101C000010040462856923F0A00343EA011325F45C
:101C1000704545EA02358561036230BD8368134A29
:101C20001340194341F00701816070478800CEFFDF
:101C300020001000300010004000100000000140A3
:101C400000480140004401400040014000040140C0
:101C5000000C004000080040000400408CFFFEFF24
:101C6000FF8CFFFE8FFFFEFFFF8FFFFE8FFFCFFF7A
:101C700010B5846824F47F442143114341EA0321D1
:101C8000816010BD10B58EB00AA80021002200238B
:101C9000002480E81E006A46002082E80B001C2118
:101CA00003A800F011FA0020654C4FF08042654B0C
:101CB000A06063212061A061204622606360E16032
:101CC000FFF758FB08B100F0F7F94FF480500AA96C
:101CD0000A902046FFF772FD08B100F0EDF92046AA
:101CE000FFF7B8FB08B100F0E7F900F045F808B1DC
:101CF00000F0E2F960210022039103A9049220463A
:101D000005920792FFF7C4FC08B100F0D5F9204610
:101D100000F06EF80EB010BD10B58CB0242103A8F1
:101D2000494C00F0D1F96A4600210020002382E8E6
:101D30000B004648616020600020A1604FF6FF73F1
:101D4000A161012120610122049006900790089072
:101D5000099103A90A900B902046E3600392059233
:101D6000FFF79EFB08B100F0A7F900F005F808B1F5
:101D700000F0A2F90CB010BD0021204600910291A4
:101D8000694600F0A5B981B00068B0F1804F09D173
:101D90002F48016841F001010160006800F0010076
:101DA0000090009901B0704710B586B000F03AF885
:101DB0002268264B9A4219D12648816841F00201D7
:101DC0008160826802F0020200920099036843F089
:101DD00002030360026830231F4802F0020200F091
:101DE00026F80221059101A900F0C2F906B010BD44
:101DF00010B586B000F016F82268B2F1804F0FD10E
:101E000014480123016841F0010101600268134890
:101E100002F0010200F00BF801A9059300F0A8F907
:101E200006B010BD0446142101A800F04DB900927F
:101E300000990222019300210292039104917047BC
:101E4000804700207FA90300CC4700200004004009
:101E5000E8440258E04402580004025800000258C6
:101E60007047704770470EE00268436802440830CC
:101E70005FEAC37C44BF4B445B1E52F804CB43F87B
:101E800004CB091FF9D150F8041B0029ECD170478D
:101E900038B5824A8249106883030AD400F04BF8AF
:101EA00000240C6000F047F8106840F4003000F0A7
:101EB00041F81368DC031ED400201067BFF34F8F76
:101EC000D36EC3F34E34C3F3C90543F6E07000EAA2
:101ED000441040EA857008612846451E0028F4D168
:101EE0002046441E0028EED1BFF34F8F106840F407
:101EF000803000F01FF800F051FA00F021F800F0F7
:101F0000A2F800F08BFA00F059FB00F0C5FB00F0DE
:101F100027FCFFF7B7FE00F095FC00F0BDFC00F0D9
:101F200073FD00F091FDFFF7F7FE00F01BFE00F0DF
:101F30003FFEFEE71060BFF34F8FBFF36F8F704718
:101F400070B59CB04C2109A800F0BEF8202101A872
:101F500000F0BAF8022000F067FE0020514900901E
:101F60000A68520852000A600B684F4A03F00103E6
:101F70000093106840F440401060136803F440433D
:101F80000093009813689C04FCD54848056845F008
:101F9000020505600368002503F002030093009C1E
:101FA0000095136843F440431360166806F44046F6
:101FB00000960C6844F001040C60096801F001010E
:101FC0000091009811688B04FCD500F059FE00F0D8
:101FD0000AFA3748052201684FF4A02321F01801BE
:101FE00001600121099202220B917821129209A825
:101FF00013920122159114211492022217910C219F
:102000000A931692189219911A951B9500F040FEAA
:1020100008B100F051F83F210322019108210292FA
:1020200040220491402105924FF48062069101A85C
:102030000891042103950792FEF70CFF08B100F008
:102040003BF81CB070BD38B5B0B0C0216846012463
:1020500000F03AF84FF400520023CDE900230221AA
:102060001422049178250592C02206914FF4803104
:102070000294684603950792089309931991FEF715
:102080000BF908B100F018F831B030BD006809490B
:10209000884208BF01F084B87047000014ED00E0EA
:1020A00050EF00E02C04005818480258F44402583D
:1020B000704402580014004072B6FEE77047704743
:1020C0007047704770470000002201F071B80000AF
:1020D000F0B500F13C042278012A01D10220F0BDC4
:1020E000012302222370DFF878E062700668DFF8CF
:1020F00074C07768B568764518BF664503D14B68EC
:1021000027F470071F430A6827F0700717437760AA
:102110000268724518BFB2F1804F10D00F4882425A
:102120001CBF114B9A420AD00B4EB24218BF6245F7
:1021300005D0084882421CBF0C4B9A4204D18868E3
:1021400025F0800505439560012100226170002083
:102150002270F0BD00180040000C00400004004058
:102160000000014000040140000800400040014020
:102170002DE9F84F4FF00009DFF8EC214FF0B043A4
:10218000DFF8E88105460E463BE0DFF8E441A54272
:1021900014BF0A2409248C4044EA0E04DFF8D41149
:1021A00041F82C40D3F800C07468C14301EA0C0C1C
:1021B000E40248BF40EA0C0CC3F800C0D3F804C0E6
:1021C000746801EA0C0CA40248BF40EA0C0CC3F886
:1021D00004C0D2F804C0746801EA0C0CA40348BF20
:1021E00040EA0C0CC2F804C0D2F800C001EA0C0CA2
:1021F0007168C90348BF40EA0C0CC2F800C009F17D
:102200000109316831FA09F000F0A780012404FACD
:1022100009F414EA0100F2D04FEA490C032101FA53
:102220000CF16FEA010E716801F00307012F1CBF6A
:1022300001F00301022911D1A968F7680EEA010132
:1022400007FA0CF73943A960696821EA0404716848
:10225000C1F3001101FA09F10C436C6034794FEAC3
:10226000890104F00304032C21D0EC68B7680EEA5E
:10227000040407FA0CF73C43EC60347904F00304DF
:10228000022C14D14FEAD9074FF00F0B05EB87044E
:1022900001F01C070BFA07FBD4F820A02AEA0B0A6E
:1022A000D6F810B00BFA07F747EA0A0727622C683E
:1022B0000EEA0407347904F0030404FA0CF444EA47
:1022C000070CC5F800C0746814F4403F97D0D8F8E4
:1022D00000E04FEA990C01F00C010F278F404EF0FF
:1022E000020EC8F800E0D8F8004004F002040094A0
:1022F000DDF800E01F4C54F82C4024EA070E1E4F76
:10230000BD4208BF002427D01C4CA54208BF0124B1
:1023100022D01B4FBD4208BF02241DD0194CA5423C
:1023200008BF032418D0184FBD4208BF042413D09F
:10233000164CA54208BF05240ED0154FBD4208BF5C
:10234000062409D0134CA54208BF072404D0124F1D
:10235000BD427FF41AAF08241DE7BDE8F18F02B932
:10236000090481617047000080000058F44402585D
:1023700000240258080400580000025800040258C3
:1023800000080258000C02580010025800140258AD
:1023900000180258001C02580020025838B50320CB
:1023A000184DFEF7A6FFFEF759FE1749174A0B68AE
:1023B000C3F30323D45C096801F00F01525C04F0FD
:1023C0001F04E040124C02F01F0220FA02F32360C7
:1023D00028600F20FEF738FF08B1012032BD00F061
:1023E00001FF002032BD0B480068000C70470A490D
:1023F0000A6822F4600202E00A6822F00202104336
:102400000860704718000020184402583C55000826
:102410001C0000200010005C040400582DE9F84363
:1024200086B014220021684600F0F0FE5648574C52
:10243000026844F20105564E564FDFF85C81DFF822
:102440005C9142F010020260016801F0100100F09E
:10245000B0F843F004030360016801F0040100F0E8
:10246000A8F843F020030360016801F0200100F0A8
:10247000A0F843F080030360016801F0800100F0E0
:1024800098F843F001030360016801F0010100F0D6
:1024900090F843F002030360016801F0020100F0CC
:1024A00088F843F040030360016801F0400100F048
:1024B00080F8002243F008030360006800F0080081
:1024C0000590059920464FF48071FFF748FF0022E0
:1024D00029463046FFF743FF002203213846FFF725
:1024E0003EFF00224FF480614046FFF738FF002294
:1024F00002214846FFF733FF4FF4005100220091BC
:102500006946019226480292FFF732FE4FF480712D
:1025100000F048F820460393FFF72AFE012100222D
:10252000019169460095304602920392FFF720FE22
:10253000032100F037F838460393FFF719FE4FF4F4
:102540008061009101220023019269460293404676
:1025500003930024FFF70CFE80224FF488130092AF
:102560006946019338460294FFF702FE02210122D8
:10257000009169460192484602940394FFF7F8FDE2
:1025800007B0BDE8F0830000E04402580014025890
:102590000004025800180258000C0258001002589B
:1025A000000802580122009100230192694602931B
:1025B00070470591059A0368704700000922324868
:1025C00010B5027100243149022301220160C37158
:1025D000847143728272C472047342738273C473CF
:1025E00000F01EFE18B1BDE81040FFF765BD10BD3C
:1025F00038B5B6B00446142101A8FFF765FDC02127
:1026000006A8FFF761FD2168204A91423AD14FF4B4
:10261000802400254FF4801306A8CDE906452893B1
:10262000FDF73AFE08B1FFF747FD00F01FFB184C1D
:102630004FF4C853A06840F00100A060A16801F009
:1026400001010091009A0221039504950A2202914A
:10265000104D019301A905922846FFF789FD4FF41B
:1026600000710022019101A9029228460392FFF70E
:102670007FFD206840F000602060216801F000616B
:102680000091009837B030BD403C00200000084069
:10269000D84402580000025810B586B0142101A891
:1026A0002C4CFFF711FD0020002100902A482060EB
:1026B0007F22FF236160A2602046E3602161A16167
:1026C000E161616100F014FE08B1FFF7F5FC002143
:1026D0000122ADF8041020468DF8061004910591F2
:1026E00001A900F055FE08B1FFF7E6FC0121012227
:1026F0008DF8001020468DF8021000218DF803108F
:1027000069468DF8012000F0A7FE08B1FFF7D4FC60
:1027100006B010BD38B5B0B00446C0216846FFF71A
:10272000D3FC22680C4B9A4212D14FF4800400254E
:102730004FF480716846CDE900452D91FDF7ACFD61
:1027400008B1FFF7B9FC0548016841F40041016098
:1027500031B030BD3C480020004000587044025861
:1027600010B54FF4E131334C3348616020600022F2
:102770000C21A260E260204622616161A261E261F7
:1027800022626262A26200F02BFF08B1FFF794FCA4
:102790000021204601F0D7FA08B1FFF78DFC002197
:1027A000204601F0DBFA08B1FFF786FC204601F075
:1027B000ADFA18B1BDE81040FFF77EBC10BD38B5CA
:1027C000B6B00446142101A8FFF77EFCC02106A87C
:1027D000FFF77AFC2168184A914229D1022400258A
:1027E000CDE90645249506A8FDF756FD08B1FFF78B
:1027F00063FC1248816841F480218160826802F4A0
:10280000802200920099036843F008030360026885
:102810004FF440730A4802F00802009200990193B5
:1028200007210294059101A903950495FFF7A0FCE7
:1028300037B030BD0445002000480040E044025855
:10284000000C02580022114880B582801049426174
:10285000826101220160026201F0D2FA18B1BDE882
:102860000140FFF729BC01BD81B0006808498842DA
:1028700009D10848026842F400220260006800F4AE
:1028800000200090009901B0704700001848002017
:10289000004C0258E044025838B5534C534820606D
:1028A00004F1B00500218022E1236A702970012023
:1028B000AB704FF04052E97040F2F453A9804C499C
:1028C000207220466560E1602261636101F0D4FA04
:1028D00008B1FFF7F1FB382104F1B800FFF7F4FB72
:1028E00021204FF440310022A860E961AA6131BD86
:1028F00010B586B0044614216846FFF7E5FB226850
:102900003A4B9A4266D13B48016841F4004101606C
:10291000026802F4004205920599036843F480338B
:102920000360026802F4803205920599036843F45B
:10293000003303600268322302F4003205920599E5
:10294000826842F004028260816801F0040105910E
:10295000059A816841F001018160826802F00102FC
:1029600005920599826842F002028260816801F056
:1029700002010591059A816841F0400181608268F9
:102980001D4802F0400205920599022200930021A1
:102990000192029103910B2104916946FFF7E8FB34
:1029A0000222862100F018F814480492FFF7E0FB99
:1029B00002224FF4005100F00FF811480492FFF783
:1029C000D7FB02224FF4205100F006F80D48049284
:1029D000FFF7CEFB06B010BD0192002300910B2241
:1029E00002936946039370477843002000800240B9
:1029F00000020030D8440258000802580000025873
:102A0000000402580018025800234B4810B5836098
:102A10004A494FF000530160836100214FF4800266
:102A200081630724C1634FF080434260C460016149
:102A30004161C161016241628162C162436300F030
:102A40002AF800B130E010BD10B53D483D494FF4C3
:102A5000C0230160836000214FF080630161416108
:102A60004FF4800283614FF0A04100234260C161B6
:102A70000021436207244FF4000281634FF080433A
:102A8000C46002628162C1624363C16300F003F803
:102A900000B109E010BD016441648164C164016555
:102AA0004165816501F072BCBDE81040FFF704BBD1
:102AB00010B586B0044614216846FFF705FB206870
:102AC0001E4A2149904212D1086940F40050086121
:102AD0000A691E4802F400520592059B0C68742393
:102AE00044F010040C60096801F0100115E0154A6B
:102AF00090421FD1086940F4801008610A691448A7
:102B000002F480120592059B0C684FF4207344F088
:102B100020040C60096801F020010591059A02214A
:102B200000930022019102926946039205220492C9
:102B3000FFF71EFB06B010BD244600200034014004
:102B4000AC46002000500140E044025800100258FA
:102B500000140258074B036003F154000860802101
:102B60001160704780B5002107A000F026F8024AE6
:102B7000106001BD244100206048002080B5012084
:102B800000F04AF8FBE70000B05600087D2B000873
:102B900000000000000000008000000000000000B5
:102BA0000000000001460020842918BFC81C70479F
:102BB00080B501F0BCFD002002BD38B584B00446EC
:102BC0000D46616900291CBFA069002812D0B4F924
:102BD0000800FFF7E7FFA1692B46029162690192A5
:102BE000009022692168606801F080FC03900398DE
:102BF00005B030BDB4F90800FFF7D4FF03A9009079
:102C000001912269216860682B4692B201F09FFC15
:102C10000128ECD00020EBE780B500B9012001F0DD
:102C20005FFD002002BD000038B5DFF84C40A16810
:102C30004A0708D4A36803F00703834201D00120A8
:102C400032BD002032BDA168C90840EAC100A060C1
:102C5000FEF7FAF8054620688104F2D4FEF7F4F88E
:102C6000401B40F2E9329042F5D3E8E7034801689F
:102C700041F0807101607047044802580C480258C6
:102C80000248016841F480710160704700480258B1
:102C90002DE9F04104002CD02078DFF8F454C1076E
:102CA00011D52869A96A00F03800102805D0182825
:102CB00004BF01F00301022930D129688A0302D53B
:102CC0006068002815D0217841F2040688076BD58A
:102CD0002869A96A202700F0380028B1182808BF01
:102CE00011F0030F40F0A980E06829684A0702D577
:102CF000002800F02D82296821F01901084328607E
:102D0000FEF7A2F880462868410742D4FEF79CF8F7
:102D1000A0EB08000328F6D3032037E26068B0F583
:102D2000803F0FD038B9296821F4803129602868A4
:102D300020F4802009E0B0F5A02F08D1296841F4E3
:102D400080212960286840F48030286007E02A68E4
:102D500022F480322A60296821F480212960606889
:102D600058B1FEF771F8064629688803ABD4FEF720
:102D70006BF8801B6528F7D3CEE7FEF765F80646AB
:102D8000286881039FD5FEF75FF8801B6528F7D37D
:102D9000C2E7FFF728FBB04248D2206940283ED165
:102DA000686867F3113068602178C8061ED5286905
:102DB0001027A96A00F03800082805D0182804BF99
:102DC00001F00301012973D12868C10503D5E26927
:102DD000802A40F0BD81FFF706FBB04260D2206A36
:102DE000202856D1686867F39E60686021780A07DA
:102DF00040F199806069002800F08580696F41F09A
:102E000001016967FEF720F80646686F810700F147
:102E10008A80FEF719F8801B0328F6D37CE76968DF
:102E200021F47C3141EA00316960BDE768682169BD
:102E300020F0FE4040EA0160B5E7E068C8B12968CB
:102E400021F0190108432860FDF7FEFF804628683D
:102E5000410706D4FDF7F8FFA0EB08000328F6D3DE
:102E60005AE7FFF7C0FAB042E0D220694028D6D135
:102E700096E72868400840002860FDF7E5FF074610
:102E80002968480790D5FDF7DFFFC01B0328F7D35B
:102E900042E7696821F0F84141EA80616960A5E78D
:102EA000E868216A20F07C5040EA0160E8609DE714
:102EB000E069C0B1296841F080012960FDF7C4FFD5
:102EC00080462868C10506D4FDF7BEFFA0EB0800C8
:102ED0000328F6D320E7FFF786FAB042E0D2206A53
:102EE0002028D6D17EE7286820F080002860FDF7F2
:102EF000ABFF06462968C805D9D5FDF7A5FF801B9D
:102F00000328F7D308E7686F400840006867FDF7BB
:102F10009BFF0646686F810705D5FDF795FF801B6F
:102F20000328F7D3F8E621788A0621D5A06978B17D
:102F3000296841F480512960FDF786FF064628681C
:102F4000810415D4FDF780FF801B0328F7D3E3E647
:102F5000286820F480502860FDF776FF064629682F
:102F6000880405D5FDF770FF801B0328F7D3D3E64F
:102F70002078410748D5874F3A6842F480723A601A
:102F8000FDF762FF06463868C10505D4FDF75CFF12
:102F9000801B6528F7D3BFE6A068012804D1286FFD
:102FA00040F00100286713E008B9286F09E0052800
:102FB000286F06D140F004002867296F41F0010115
:102FC00005E0400840002867296F21F004012967C7
:102FD000A06841F2893658B1FDF736FF0746286FE1
:102FE000810711D4FDF730FFC01BB042F7D393E641
:102FF000FDF72AFF0746286F810705D5FDF724FF57
:10300000C01BB042F7D387E6606A002800F0BD809D
:103010002969614E01F03801182973D00228286807
:1030200020F08070286061D1FDF70EFF0746296807
:10303000880105D5FDF708FFC01B0328F7D36BE611
:10304000A86AA26A5549E36A0840104340EA03109F
:10305000A862616B206BA26B491E4902401EC0F33F
:103060000800521E01F47E4112040843E16B02F491
:10307000FE021043491E090601F0FE410843286381
:10308000E86A40084000E862696BA06C0E4046EABE
:10309000C0066E63E96A206C21F00C010143E9620D
:1030A000E96A606C21F002010143E962E96A41F4D6
:1030B0008031E962E86A40F40030E862E96A41F48C
:1030C0008021E962E86A40F00100E862296841F085
:1030D00080712960FDF7B8FE04462868810154D448
:1030E000FDF7B2FE001B0328F7D315E6FDF7ACFE93
:1030F00004462968880148D5FDF7A6FE001B032871
:10310000F7D309E60128AA6A296B21D0A36A02F045
:103110000300984202BFC2F30510E26A904217D141
:10312000236BC1F30800401C984201BFC1F3462045
:10313000401C626B90420BD1A26BC1F30640401C55
:10314000904201BFC1F30660401CE16B884201D090
:1031500001201BE0686BA16CC0F3CC00814214D04D
:10316000E86A40084000E862FDF76EFE0746FDF79A
:103170006BFEC01BFBD0686BA16C064046EAC10623
:103180006E63E86A40F00100E8620020BDE8F0816B
:1031900000440258004802580700FFFF0CFCFFFFE4
:1031A0000248416802788A18426070470C0000208B
:1031B00000B500BF130096469446103928BFA0E81A
:1031C0000C50FAD85FEA417C28BF0CC048BF40F8D9
:1031D000042BC90728BF20F8022B48BF00F8012B99
:1031E00000BD000082B008480168002241F00201E1
:1031F0000160006800F00200009000996FF001008B
:1032000002B00F21FEF782B8F444025810B504460C
:1032100010460A460146204601F034FC204610BD07
:10322000F8B504004ED004F29445687820B9002126
:1032300020462970FFF7DCF903266E70206801F044
:1032400075FC83B000F04FF80EBC206801F024FC40
:10325000002835D12068002101F06EFC80BB0021E0
:103260002420002700260DE000FB01F20123224468
:10327000537500231175D185491C1676C9B2D361E7
:103280001762566222799142EEDB00210DE000FBCD
:1032900001F20023224402F515721170491C53708B
:1032A000C9B216719760D360166122799142EEDB44
:1032B00083B000F018F80EBC206801F069FC18B16A
:1032C000022068700120F2BD002101206174687045
:1032D000227B012A04BF204601F096FD206801F000
:1032E0004DFD0020F2BD211D68460D2201F0A0BD5C
:1032F00038B504460120002C49D094F8211029B992
:103300000022204684F82020FFF704FA022184F8E6
:1033100021102068C268D10635D4CA2343622268CE
:1033200053205062204600F0FDF8010017D12168BB
:10333000DFF880028A6802408A6023689D686268BC
:103340002169A06915430D4305439D60A268E068AB
:10335000216840EA02400861204600F004F90100BB
:103360000BD12168CA6C92089200CA642368DD6C94
:10337000E269616915430D43DD642268FF2305009E
:10338000536204D100E00020012184F8211032BDF5
:10339000F8B505460E4695F820001446012801D1DF
:1033A0000220F2BD0121022085F82010CA2285F8F2
:1033B00021002B6853215A6228684162284600F098
:1033C000B1F8010039D12868A4B9806841065CBF12
:1033D0000022F270307800F0F7F800F03AF80402BA
:1033E000B07844EA074400F0EFF80443F07844EA88
:1033F00080540EE0816848065CBF0022F270747849
:103400003178F278240244EA0144B1780C4344EA6A
:1034100082542968DFF8A00104400C6028688268A3
:1034200022F4802282602A689368F16830690B4335
:1034300003432846936000F096F82A68FF210300B2
:10344000516204BF012485F82140002185F8201035
:10345000F2BD07467078B7E0F8B504460E4694F81A
:103460002000012801D10220F2BD0121022084F8B0
:10347000201084F8210075789ABBE80603D505F082
:10348000EF050A357570F07800F09EF8FFF7E1FF60
:103490000502B07845EA074500F096F80543307814
:1034A00045EA40352268CA21532051622368586298
:1034B000204600F037F8010007D12168DFF8FC0052
:1034C000054020464D6000F04EF82368FF220100C1
:1034D0005A6204BF012584F82150002184F820108D
:1034E000F2BDF2782D02B078317845EA0245054305
:1034F00045EA4135D6E738B5044631482168C86009
:10350000FDF7A2FC05462268D068810608D4FDF7C5
:103510009BFC401B40F2E9329042F4D3032032BDC1
:10352000002032BD70B5044600252068C1684A06F7
:1035300017D44FF0FF33C360FDF786FC06460AE060
:10354000FDF782FC801B40F2E931884203D303205F
:10355000032584F821002168CA68500601D4032D90
:10356000EED1284670BD70B50446164D6868002639
:1035700020F08000686029688A0608D42046FFF79A
:10358000BAFFA0B10320032684F821000FE02968C8
:10359000204621F020012960FFF7ADFF18B103207C
:1035A000032684F82100296841F020012960304673
:1035B00070BD0000BFFF8FFF7F7F7F003FFFFF00D8
:1035C0005FFF030008400058002101E0491C0A3851
:1035D000C2B20A2AFAD240EA0110C0B27047000013
:1035E00038B5040001D1012032BD04F184056868BA
:1035F00008B900F01BF800F01EF808B100F02EF832
:1036000000F029F8012806D0206800F005F800F045
:103610001BF800F02EB832BD416821F490414160A2
:103620002068826822F02A028260704700212046CA
:103630002970FFF7C4B82420686020680168490831
:1036400049000160A06A70472068016841F00101EB
:10365000016020467047204600F00EB8204600F07A
:10366000F5B9284600F0ADBA284600F0F6BA202198
:103670005160BDE832404DE22DE9F04186B004468C
:103680002168DFF8300600250E68A268236906402D
:1036900060691643E2691E4306431643DFF81026AD
:1036A0000E604B68E06823F44053034391424B6043
:1036B000A6691CBF236A1E438F68DFF8FC0507401C
:1036C0003E438E60CB6A606ADFF8F0750FF24C36CD
:1036D0001B09B94240EA0313CB62DFF8E43548D155
:1036E000586D10F0380000F09D80082800F0D3805D
:1036F00010284BD018285AD0202800F06A8028289B
:1037000000F07A804FF0800C9142DFF8B805DFF8C6
:10371000B8E54FF4004840F0E980BCF1020F14D046
:10372000BCF1040F00F0BA80BCF1080F00F0BB80C0
:10373000BCF1100F00F0BC80BCF1200F00F0C08085
:10374000BCF1400F00F0BE805BE1FDF79BF9002863
:1037500000F05881616A36F81120B0FBF2F6626819
:1037600002EB42039E4203D31103B14280F0AC80CE
:1037700047E1DFF8580581420BD100F062F9C1D86A
:10378000DFE807F075890415273ABBE74FF0080C0E
:10379000BAE7DFF83C0581420CD100F052F9B1D80C
:1037A000DFE807F065790405172AABE7EEE74FF08D
:1037B000100CA9E7DFF81C0581420DD100F041F99A
:1037C000A0D8DFE807F05468050406199AE7EEE789
:1037D000DCE74FF0200C97E7DFF8180581420ED1A7
:1037E00000F02FF9F2D8DFE807F04256060504078B
:1037F00088E7EEE7DBE7C9E74FF0400C84E7DFF846
:10380000F804814211D15F6D17F038070AD0082FF4
:1038100041D0102FBAD0182FC9D0202FD9D0282F9F
:10382000EAD06FE74FF0010C6EE7DFF8D004814279
:103830000CD100F006F9F4D8DFE807F0192D0706DF
:1038400005045FE7D8E7C4E7B1E79FE7DFF8B00416
:1038500081420ED100F0F5F8F3D8DFE807F0081C3C
:10386000070605044EE7C7E7B3E7A0E78EE7AC46D7
:103870004AE79142F6D1986D00F00700052804D878
:10388000DFE800F00809070605043BE7B4E7A0E716
:103890008DE77BE759E74FF0040C35E703A8FDF708
:1038A00001F9049853E76846FDF728F901984EE7B7
:1038B00019688A0605D51F68C7F3C101C84046E7E5
:1038C000704647E7404645E75008002110EB0620C8
:1038D00051EB1661002301F0B7FAA0F54076DFF84E
:1038E00024148E421DD22768F8608BE0E1694FF600
:1038F000F077B1F5004F44D1BCF1000F12D0BCF10C
:10390000010F25D0BCF1040F25D0BCF1080F27D042
:10391000BCF1100F29D0BCF1200F2ED0BCF1400F0C
:103920002DD06EE0FDF731FC00286BD000F082F85E
:103930004E0806EB4006B6FBF1F0A0F11001B942CB
:103940005FD20740C0F3420007432068C76059E0D8
:10395000FDF723FCE8E703A8FDF7A4F80498E3E7E4
:103960006846FDF7CBF80198DEE719688A06DDD5D1
:103970001968C1F3C101C840D6E77046D6E7404692
:10398000D4E7BCF1000F12D0BCF1010F20D0BCF184
:10399000040F20D0BCF1080F22D0BCF1100F24D0AE
:1039A000BCF1200F29D0BCF1400F28D029E0FDF751
:1039B000ECFB38B300F03EF800EB5100B0FBF1F047
:1039C000A0F11001B9421CD2226880B2D06019E087
:1039D000FDF7E3FBEDE703A8FDF764F80498E8E7DB
:1039E0006846FDF78BF80198E3E719688A06E1D588
:1039F0001968C1F3C101C840DBE77046DAE7404609
:103A0000D8E7012504F168000121002341800180ED
:103A1000C3600361284606B0BDE8F08101000200E2
:103A20000400060008000A000C00100020004000FE
:103A300080000001626A616836F81230B0FBF3F072
:103A400070475F6D07F00707052F704710B590F8B6
:103A500028100A0706D502685368816B23F40043D7
:103A60000B43536090F82820D10706D502685368AD
:103A7000C16A23F400330B43536090F82820910768
:103A800006D502685368016B23F480330B435360FF
:103A900090F82820510706D502685368416B23F43B
:103AA00080230B43536090F82820D10606D5026886
:103AB0009368C16B23F480530B43936090F82820E4
:103AC000910606D502689368016C23F400530B43FA
:103AD000936090F82820510610D502685368416C15
:103AE00023F480130B435360436CB3F5801F05D15F
:103AF0005468816C24F4C0040C43546090F828206E
:103B0000110606D501684A68C06C22F400220243FF
:103B10004A6010BDF8B5054605F1840400206FF039
:103B20007E47E060FDF790F92968064608680207BD
:103B300012D50097334600224FF40011FFF791FD94
:103B400050B1286850E8001F21F0800100F080F893
:103B5000F7D12020606018E02A681068410718D566
:103B60000097334600224FF48001FFF77AFD80B1C1
:103B7000286850E8001F21F4907100F069F8F7D12F
:103B800000F012F8FCD12020A06000210320217059
:103B9000F2BD2022202062600021A0600022E966A0
:103BA00000202A672070F2BD286800F1080151E862
:103BB000001F490800F10803490043E800100028ED
:103BC00070472DE9F04105460E4690461F46069C7B
:103BD0002868C1693140B1420CBF01200020404536
:103BE00034D114F1010FF3D0FDF72EF9C01B84423C
:103BF00000D314B90320BDE8F081286801684A07A2
:103C0000E6D5802E18BF402EE2D0C1690A0703D442
:103C1000C1690A05DCD50CE02B6808201862FFF7A3
:103C200023FD05F184000821C160002202700120FB
:103C3000E1E729684FF400600862FFF715FD05F120
:103C400084002022C26000210170D3E70020D2E767
:103C5000024642E800100028704730B500F00EF828
:103C6000FCD100F015F8FCD1C16E00F035F8202130
:103C70000022C0F88C10C266426730BD016851E86E
:103C8000002F22F490720B4643E800210029704770
:103C90000168DFF8745001F1080252E8002F01F1C9
:103CA00008042A4044E80021002970470000000071
:103CB000000C0058F369FFCFFFF4FF110010014022
:103CC000004402580090D00300093D000044004029
:103CD00000480040004C0040012909D1026852E828
:103CE000002F036822F0100243E800210029F5D1DB
:103CF0007047000000500040001401400078004070
:103D0000007C004000FD0F00FEFFFFEF10B500F14A
:103D100084010A78012A01D1022010BD0123242246
:103D20000B704A60026813681468640864001460C9
:103D300000224266006823F00053036020234B609A
:103D400000200A7010BD70B500F01FF801D10220EC
:103D500070BD00F020F822F0604209E070B500F07C
:103D600014F801D1022070BD00F015F822F0606255
:103D700011438160204600F01BF8206820210022BA
:103D80000660002069602A7070BD044604F1840555
:103D9000287801287047012224202A706860206852
:103DA000066803685B085B000360206882687047F0
:103DB00030B5416E11B90121012214E0016800BF44
:103DC0000FF22C040CA38A688968520E02F00702D5
:103DD000490F655CA45C595C9A5C2D01240195FB3C
:103DE000F1F194FBF2F268304180028030BD0000B6
:103DF0000101010307010000080402040801010198
:103E000010B504001FD0617F19B900222277FEF798
:103E10002BFD02216177207970B922681549516123
:103E20002068836823F018038360607968B922688A
:103E30004FF0FF3111610BE0E268A168204601F00C
:103E400086F80028F1D0012010BD216820690861A2
:103E500021688A68606922F0600202438A602168F2
:103E60008A68A06922F08002024300208A60012152
:103E7000617710BDB71DC104F8B50400A2B035D0FC
:103E800004F18405286820B9232120462960FEF723
:103E90002FFDDFF8CC02026842F0020202600068E7
:103EA00000F0020000900099207A08B14FF4000061
:103EB000FEF79DFADFF8AC024FF4805601682068E7
:103EC000825942F001028251FCF7BEFF074620688A
:103ED0008159CA070CD5FCF7B7FFC01B40F2F5119A
:103EE0008842F4D30420E02268602A60012008E1BF
:103EF0002046002600F007F9FDF72FF9DFF86812D9
:103F00002268B0FBF1F00021401EC2F8DC00012362
:103F100012911CAA8DF841104FF4C3608DF8431024
:103F200013A98DF833304FF480478DF828308B7209
:103F30008DF8323013754FF400538DF84C600E74C9
:103F40004E61567596758DF830600B968DF836601B
:103F50008DF8406056604E600E7620260F93012348
:103F6000C860002016614FF040568DF83530086269
:103F700090728DF842308DF8443000231081087221
:103F80000120099602264B728DF83400CB6109A9F5
:103F90008DF8700020460E978DF83130D6600026DF
:103FA00000F0E4F8012200218DF80420204602925E
:103FB00000228DF814108DF81D104FF40671009238
:103FC000ADF80C204FF40012089169468DF81C6082
:103FD0000692049200F081F920684FF48851022281
:103FE000435862F394434350606910F0030F04D0C8
:103FF0000120E0216860296083E0216841F2081215
:1040000000278B586FF34E0343EA400318208B5070
:1040100000218C46E26800FB01F300261A440023CD
:10402000166004EB81065760491CC2F808C00429D9
:10403000D360B261EED3A3622368032241F22C164F
:104040009A512768E16841F21412B9502668E36872
:10405000002706F5895100260B600021226900FB2C
:1040600001F31A44002316605760C2F808C0D360F9
:1040700004EB8103491C0429166157619A64EDD34E
:10408000E6650322266641F23010A666E666A6655E
:1040900023681A502668216941F21C12B150206928
:1040A000216841F2281600F148038B5160682168AD
:1040B0004279007940EA0220C1F800036068236871
:1040C0008178C278090441EA02614278007841EAC5
:1040D00002210143DFF87C02C3F804132168D1F800
:1040E0000C270243C1F80C2720681022D0F81017C3
:1040F00041F0406141F40311C0F8101700206860DE
:104100002A6023B0F0BD38B504462068D0F80052CC
:10411000FDF723F8DFF8401225F47065884238BFB8
:1041200045F4007518D3DFF83422904232BF45F4CD
:104130004075DFF82C1288420ED3DFF82822904217
:1041400038BF45F4807507D3DFF81C12884234BFAE
:1041500045F4806545F4A0652068C0F8005231BD83
:10416000F44402580404005840420F002DE9F04185
:104170000A7C002A0CBF4FF4002400244A7C002A49
:104180000CBF4FF4003C4FF0000C8A7F002A0CBF9C
:104190004FF48067002791F82020002A0CBF4FF4CD
:1041A000807E4FF0000E0668DFF8C03101F128056F
:1041B000D6F800808A6803EA08008B7C024308680E
:1041C00010430A7940EAC2600A7B40EAC252487B47
:1041D00042EA80508A7B40EA4252C87B42EA005061
:1041E0004A6904434CEA040444EA034488690B7FA7
:1041F00014434A7F0443486A44EA0334CB7F44EAC9
:10420000C2246A683C432F7844EA43244EEA0404FB
:10421000044344EA071414433460A87A00280CBF0E
:104220004FF48033002372686C69DFF844012F7CFF
:104230000240287A42EA44626C7A42EA076242EA21
:104240008042DFF8300142EA44421343EA681343F4
:104250007360F3682C7EEA69034043EA0423134346
:1042600001F14C02F360107800280CBF802300237A
:10427000346F177A4FF60D7150680C40296A44EA82
:1042800047040443234343EA01433367D6F890309D
:10429000517A907A9B089B0043EA41030343C6F896
:1042A000903006F550631C68D16824F072040C430A
:1042B0001C60107D00280CBF402100211C6B106980
:1042C000557D927D24F07B040443214341EA05118E
:1042D00041EAC2011963BDE8F081F0B50468DFF876
:1042E0009830DFF8982004F5805504F588542E683E
:1042F00008681E4006432E606F680B798868174077
:104300000A7B47EA03370743DFF8740047EAC237FE
:104310006F6025684A7B0B6A054045EA0245DFF875
:1043200064201D432560656808690B7D15404A7F40
:104330000543DFF8540045EA031545EA0235656098
:10434000A3680A7F8969034043EAC2730B43A360F1
:10435000F0BD00006000020CC00E1602008793033F
:1043600000E1F50580D1F00880B2E60E83800400FC
:104370000080F8C0F0FEFFFFFD87FFFFFE2FFFFF6C
:1043800000C0FEFFEFEFC0FFFFFFC07F70B504006D
:104390003FD00020DFF84831A0622068DFF84411E8
:1043A000DFF8442198421CBF9042884202D0E56861
:1043B000102D2ED2E568E66B0835ED087609761CDF
:1043C000754398421CBF9042884220D0082D20D8C7
:1043D00004F18005697821B9002028702046FEF795
:1043E00067FB02216970206802685208520002606F
:1043F00020688368A169B1F1806F03F4F81316D1C6
:104400006068B0F5800F06D1A06B80B909E0102D6F
:10441000DED9012070BD002804BFA06BB0F1805F21
:1044200005D121680A6842F480520846026061683A
:104430004A020AD5E068072807D321680A68206D78
:1044400022F4807202430A6004E02068016821F4CB
:1044500080710160E069A26AE16B26681043034342
:10446000E0680B430343B360636B606AA16BA269AE
:104470002668034320690B4361691343226A03439F
:1044800060680B43E16C1343A2680343A06C0B43C9
:10449000A16D134303430B43F360606858B9206870
:1044A0000121826861F3CC22022182602068826847
:1044B00061F34A2282602068016D49084900016564
:1044C0006068410206D52168CA68606D22F000422A
:1044D0000243CA6000210122696000206A7070BD39
:1044E00000300140003C004000380040F0B585B08D
:1044F00050260B9D25B986F3118800F072FAFEE76D
:104500000C9C24B986F3118800F06BFAFEE754275F
:104510000097DDF800E0BEF1540F04D086F3118857
:1045200000F05FFAFEE7009E25630225002784F86D
:10453000515004AD0397029401950A9E009600F035
:1045400034F8204600F06FF8049805B0F0BD2DE96E
:10455000F8430646174684B088469946B80000F0EE
:104560001FFD05001CD0542000F01AFD040014D0DB
:104570000020256384F851000D9A03900C98019255
:104580004B4600903A4602944146304600F00DF802
:10459000204600F048F8012004E0284600F089FD9C
:1045A0004FF0FF3005B0BDE8F0832DE9F0470A9EDB
:1045B0008046356B05EB820206F13404101FC008FB
:1045C0004FEAC00A51B100228D5CA554885C10B13D
:1045D000521C102AF8D30020E07300E02170089FDD
:1045E000062F88BF0627099DF7622761002199469B
:1045F0006161301DC7F1070700F0B7FD06F1180033
:1046000000F0B3FD36610020B761002176624A46B2
:10461000A06150462177414600F0E4FD306005B1CD
:104620002E60BDE8F0872DE9F04100F054F8E86C09
:104630001426DFF8C083401CE864A86A28BBAC627B
:10464000E96C012929D1002706FB07F07F1C4044B3
:1046500000F07EFD072FF7D305F1740005F1880700
:1046600000F076FD384600F073FD284600F070FD3E
:1046700005F1140000F06CFD05F1380000F068FD54
:1046800005F17401E9622F6307E0A86D28B9E16ABA
:10469000A86AC26A914228BFAC62A86E0122401C7F
:1046A000A866E06A696D8240464311436965211D31
:1046B00008EB060000F05CFD00F01FFEA86D40B1A5
:1046C000A96AE26AC86A904203D200F02AF800F0B0
:1046D00088F9BDE8F0810446DFF8245300F0F4BD0A
:1046E00080B578B1DFF81C23116F11B100F076F9B5
:1046F000FEE7116F491C1167002100F085F900F0F9
:1047000044F818B900F003F800F06BF901BD4FF060
:104710008050DFF854130860704704F1180000F06F
:104720004DBD4FF08051DFF840331960704780B5C0
:1047300086B00020059003AA049004A905A8FEF7FE
:1047400009FA059A049802920021039A01900091B7
:1047500000230FF228310FF2F110FFF7C7FE60B10E
:1047600000F03CF9DFF808034FF0FF31C166012289
:1047700082650023036500F057FD07B000BDDFF838
:10478000F002016F491C01677047F8B5DFF87462E9
:104790000024306F002520B900F048F800F021F91E
:1047A000FEE700F091FD306F401E3067316F002949
:1047B00038D1F06CD8B935E0F1681427CC68FFF730
:1047C000ACFF00F013F9E06A716D0122DFF89C3252
:1047D0008240784311437165211D184400F0C8FCE4
:1047E000E06AB16ACA6A904224BF01233366306826
:1047F0000028E1D10CB100F0E2F8F46D44B100F012
:1048000019F808B101203066641EF8D10021F16565
:10481000306E38B14FF08051DFF84C220125116025
:1048200000F0DFF800F069FD2846F2BD502181F369
:10483000118870472DE9F843DFF8C8710026386FFA
:10484000002853D13C6D641C3C6510D1F86A0068A7
:1048500020B1FFF7EBFF00F0C4F8FEE7F86A396B10
:10486000F9623863786E401C786600F0A8F8F86E3C
:104870004FF01408DFF8F491844228D320E0F96A5D
:10488000CA68D568686884422ED3281D00F096FC5B
:10489000A86A18B105F1180000F090FCE86A796D7B
:1048A0000122824008FB00F011437965291D48442C
:1048B00000F05EFCE86AB96ACA6A904228BF012625
:1048C000F86A00680028DAD14FF0FF31F966B86A5B
:1048D000C06A08FB00F859F80810022928BF012611
:1048E000386E30B1012604E0F866F0E7F86D401C40
:1048F000F86581E0DFF80821106F10B10121116621
:1049000070471066536D1421B3FA83F3C3F11F038C
:104910004B43DFF85811C85838B9502282F3118838
:10492000BFF34F8FBFF36F8FFEE7C81800F1080386
:10493000416849684160994204BF496841604068E4
:10494000C16891627047000070B5DFF8A840DFF8D9
:10495000B05011E000F0B8FC286AC668301D00F0C5
:104960002DFCE86C401EE864696B491E696300F029
:10497000C4FC304600F00EF8686B0028EAD12168CC
:104980000229F9D34FF08050DFF8DC20106000F0EE
:1049900028F8F1E710B5044694F8510040B9206BAF
:1049A00000F087FB2046BDE8104000F082BB10BD40
:1049B0000128F7D00228FAD000F010F8FEE7DFF85F
:1049C0004410C86A006818B94FF0FF32CA667047D1
:1049D000C86AC268D3685868C8667047502080F3B8
:1049E0001188BFF34F8FBFF36F8F7047201D00F00A
:1049F000E5BB0000984500203046BDE8F28300008A
:104A00006844002068440020F8B5194D0C462F6D0D
:104A1000A96A0646081D00F0D1FB30B9A86A696D85
:104A20000122C06A82409143696516F1010F05D1E8
:104A300024B1A86A011D05F138001BE0A86AF61927
:104A4000BE424660A86A05D2011D286BBDE8F4404D
:104A500000F09BBB011DE86A00F097FBE86E864200
:104A600038BFEE66F1BD000004ED00E0984500207F
:104A700068440020BDE8F44000F07ABB49444C454E
:104A8000000000004018491C1CBFB1F1010100F8F2
:104A9000012DF9D1704700000EB418B504469DF8F9
:104AA0001100012818D1A16BDFF83C0321F48031FB
:104AB000A163E2680240E260E16821F44011E16034
:104AC0009DF81800012803D1E16841F48011E160EC
:104AD000204600F061F912E0E06840F04000E0603C
:104AE000204600F059F99DF8151021B9A26B42F447
:104AF0008032A26303E0A16B21F48031A1639DF8B1
:104B00000E1001290FD1E26DDFF8E01292B2E265DA
:104B1000E36D0B43E365A26842F00602A260A16860
:104B200041F02001A16012BC5DF810FB81684908CA
:104B3000490081600020704738B504460025E068D0
:104B4000012920F0C040E0600FD1E16841F0005140
:104B5000E1600A200A3500F00BFC6169C80701D446
:104B6000C82DF6D3C82D11D10EE069B9E06840F028
:104B70008040E0600A200A3500F0FAFB6069C10756
:104B8000F0D5C82DF6D3EDE7012032BD002032BDAF
:104B90000EB42DE9F8470546044600260021002002
:104BA00004EB8102491C0F29C2F80401F8D39DF8D7
:104BB0002E8005F50067B8F1000F10D1786840F03D
:104BC00002007860A16B21F40011A163206840F01D
:104BD00040002060226842F08002226003E0A06B67
:104BE00040F40010A063002105F5606211609DF89B
:104BF0002900012804D19DF8272012B1012100E0ED
:104C00000321204600F0B2F81021204600F072F88F
:104C100000B10126204600F08FF800B101260020E7
:104C200000213861002279614FF67F3CFA619DF8DE
:104C300024304FF0904E4FF000692A46824606E03D
:104C400000250D60C1F810A0401CC1F808C09842B2
:104C50000FD202EB401101F510610D68002DEFD568
:104C6000002806BF02F51065C5F80090C1F800E005
:104C7000E8E7002106E0C0F800A00025491C056116
:104C8000C0F808C099420FD202EB411000F5306025
:104C90000568002DEFD5002906BF02F53065C5F87F
:104CA0000090C0F800E0E8E7386900216FF080422A
:104CB00020F480703861A16162619DF8260000F0E7
:104CC00097F8DFF83C110A43A2619DF82A0018B159
:104CD000A16941F00801A161B8F1010F05D1A069F6
:104CE00040F0804040F00400A0613046BDE8F2078B
:104CF0005DF810FB18B500220092DFF80821009B38
:104D00005B1C0093009C944212D20369002BF6D5E1
:104D100000248901009441F0200101610099491C9F
:104D20000091009B934203D201698C06F6D401E006
:104D3000032012BD002012BD18B500210091DFF83C
:104D4000C41000F045F80DD20269002AF9D50023FD
:104D500010220093026100F041F803D20369DC06DF
:104D6000F9D401E0032012BD002012BD00F500605F
:104D700002681143FFE701600020704700F56061A1
:104D800000F500600A68920892000A60416841F0EC
:104D9000020141600020704718B500210091DFF842
:104DA000641000F015F80FD20269002AF9D500232B
:104DB0000093026942F00102026100F00FF803D291
:104DC0000369DC07F9D401E0032012BD002012BD05
:104DD000009A521C0092009B8B427047009B5B1C08
:104DE0000093009A8A427047BFFFBDFF0000EE03A8
:104DF00018B9A16941F01001A161A26970470000D2
:104E000000383C800100000F016800F2CC40012214
:104E10000023C2600370886940F0006088614A6DB9
:104E2000002042F0805242F003024A6570470000C1
:104E30004AB1000011F8013B521E00F8013B1CBFB3
:104E400011F8013BF8E77047D3BBD9B1B2F5803F09
:104E50005BD2022A1ED98C46B1FBF2F102FB11C3D0
:104E60001B0443EA1043B3FBF2FC02FB1C3380B289
:104E700040EA0343B3FBF2F002FB103240EA0C407D
:104E800000237047022A05D98446B0FBF2F002FBEA
:104E900010C270474AB105D100F0010249085FEA2B
:104EA0003000704700220023704700F075BA0B00F5
:104EB0000200002100207047F7D300220023704732
:104EC000904271EB030CF2D370B5B1FA81F4B3FAEE
:104ED00083F52C1BA340C4F1200532FA05F63343B9
:104EE000A2405FF00046E64002E05B085FEA320263
:104EF000841A71EB030524BF204629467641F4D37A
:104F000002000B003000002170BD70B5B1FA81F4D1
:104F1000B2FA82F5C4F120046419B4F12006DAD3A0
:104F2000B2405FF00044F440002502E052085FEA1E
:104F30003303C61A71EB020E24BF3046714664413A
:104F40006D41F3D302000B002000290070BDF0B5C5
:104F5000044600201F25CB071FD52B465D1E2BB115
:104F600005F01F0621FA06F7FB07F6D5130007D058
:104F7000082A10D0102A0BD0182A0ED1072D0CD2D7
:104F800023685961996821F018010A439A60F0BDBD
:104F9000082DF5D301E0102DF2D30120F0BD000063
:104FA0002DE9F8430446694FFFF7E9FBB8684FF075
:104FB0000009002508BB07F1200313F0070F07F1D4
:104FC00020014FF470500A4605D0CA1DD208D20005
:104FD000C2F57050081880180838C008C0003A6040
:104FE000811A7D60B860456005605160106050684E
:104FF0003861F8604FF00040F861F9694FF05008EF
:105000000C4246D1002C44D0083414F0070F04D0D1
:1050100004F1080004F00704041B002C39D0F868E0
:10502000A04236D339463E6801E0314606467268F2
:10503000A24202D230680028F7D1B868864228D050
:105040000A6833680B6002F108097268121B112AA2
:105050000CD3311911F0070002D000F023F8FEE75D
:10506000301D02510846746000F04DF87168F86810
:105070003C69401AF860FA68A24288BF2246F86983
:105080003A610143716035607A6909F00705521C85
:105090007A61FFF77AFB15B100F004F8FEE74846A5
:1050A000BDE8F28388F31188BFF34F8FBFF36F8F92
:1050B0007047002800D1704738B5A0F10805234C8F
:1050C0006968E2695023114204D183F31188FFF724
:1050D000EBFFFEE7286820B183F31188FFF7E4FFB8
:1050E000FEE791436960FFF74AFBE1686868411891
:1050F0002846E16000F007F8A169491CA161BDE8FC
:105100003140FFF742BB114930B50A4600E01A466C
:1051100013688342FBD35368D418844203D1406898
:10512000C3181046536043681468C518A54208D1D7
:1051300089688C4204D06168CB184360246800E021
:105140000C460460824218BF106030BD2000002071
:105150004FF0FF3200F10801826000F10803416066
:105160000022C36001610260704700210161704745
:1051700010B542684A6093688B6094686160916082
:1051800008610168491C016010BD30B50A6812F160
:10519000010F08BF036907D000F1080300E02346B0
:1051A0005C682568AA42FAD25A684A6091608B60AE
:1051B000596008610168491C016030BD10B5436841
:1051C000016982689A608268446854604B688342CF
:1051D00004BF82684A60002303610868401E0860BB
:1051E000086810BD4908490010B5A0F120034FF030
:1051F000807499610FF215011A606FF00202DC6190
:10520000596140F8242D203810BD00004D49502030
:105210004A6812F1010F80F31188BFF34F8FBFF37B
:105220006F8F00D0FEE7FEE77CB5474A502110683B
:10523000464B984202D100F093F8FEE71068444BC9
:10524000984202D100F08CF8FEE7424BFF251C7813
:1052500001943C4C1D701E788DF800609DF8000094
:1052600000F050002070072005E09DF80050401E1F
:105270006D008DF800509DF800603506F5D445426C
:1052800015F1030F03D0A06000F06AF8FEE70002FA
:1052900000F4E060A06001981870116A41F4700198
:1052A0001162106A40F07040106200F077F800213F
:1052B000616000F0D3F82848026842F04042026082
:1052C00000F0BCF8002076BD502080F31188BFF3B9
:1052D0004F8FBFF36F8F1B494A68521C012A4A60E7
:1052E0000AD11E490A68130606D080F31188BFF35D
:1052F0004F8FBFF36F8FFEE770471249486838B988
:10530000502080F31188BFF34F8FBFF36F8FFEE7FC
:10531000401E486008BF80F31188704780B5502058
:1053200080F31188BFF34F8FBFF36F8FFFF782FABF
:1053300018B14FF0805009490860002282F31188AB
:1053400001BD00000000002000ED00E071C20F412F
:1053500070C20F4100E400E034EF00E004ED00E033
:1053600081F31188BFF34F8FBFF36F8F7047000039
:1053700038B50446FBF768FD14F1010F054602D06D
:10538000044801786418FBF75FFD401BA042FAD384
:1053900031BD00BF0C0000207047000030B5084848
:1053A0000021016000228260064B1C684FF47A7570
:1053B0000721B4FBF5F56D1E4560016030BD00BFEF
:1053C00010E000E018000020EFF30980BFF36F8FBA
:1053D000264B1A681EF0100F08BF20ED108A20E936
:1053E000F04F106009B44FF0500080F31188BFF304
:1053F0004F8FBFF36F8FFFF77DFA4FF0000080F300
:10540000118809BC19680868B0E8F04F1EF0100F49
:1054100008BFB0EC108A80F30988BFF36F8F704724
:10542000124B19680868B0E8F04F80F30988BFF3A1
:105430006F8F4FF0000080F3118870470C480068B0
:10544000006880F308884FF0000080F3148862B68B
:1054500061B6BFF34F8FBFF36F8F00DFDFF814002B
:10546000016841F470010160704700009044002021
:1054700008ED00E088ED00E070B52648264B016895
:10548000072241F470010160186800F00F0007283E
:1054900003D2186862F303001860204900250C68E5
:1054A0001F4844F001040C600D610E6806400E6058
:1054B0001C6804F00F04072C03D9186862F303007A
:1054C0001860002200238A610020CB61154A08621F
:1054D000154B8A621548CB620022086300234A6399
:1054E0008863CB630864002048640A68104822F48B
:1054F00080220A600B660168090C0904B1F1005FA3
:1055000002D201220B48026043F2D2010A4B196019
:1055100070BD000088ED00E00020005200440258F9
:105520007FEDF6EA000202020000FF0180020101A5
:105530000010005C08810051004000520000000093
:1055400001020304010203040607080930B4002520
:1055500012E050F8042BD30744BF4A44521E091FDF
:10556000042942F8045BFAD213468C0744BF158025
:105570009B1CC90748BF1D7050F8041B0029E8D1C7
:1055800030BC704710B5074979441831064C7C444B
:10559000163404E00A68081D114488470146A142F8
:1055A000F8D110BD2C0000005C0000004EF68851C0
:1055B000CEF20001086840F470000860BFF34F8F1E
:1055C000BFF36F8F4FF00170E1EE100A70470000DB
:1055D0007DFFFFFF60000000000000306000000061
:1055E00000020030444800002000002000000000BD
:1055F00077C8FFFF200000000C0000000000002022
:105600000000000000000000AAAAAAAA00000000F2
:105610000100000000000000100000000090D00316
:105620000090D00300F00DF8002801D0FFF7AAFF8A
:10563000AFF300800020AFF30080FCF729FC00F0FE
:1056400002F80120704700F001B800000746384614
:1056500000F002F8FBE7000080B5AFF30080024ADB
:1056600011001820ABBEFBE72600020005480146EA
:1056700003B4684680F30988AFF30080FFF796FF14
:10568000FFF7D0FFA5EDF5FEFEE7FEE7FEE7FEE73C
:10569000FEE770470148FBF752BF00003447002087
:1056A0000148804701480047795400086D560008BA
:1056B00064656661756C745461736B00FFF7FEBFBF
:1056C000FFF7FEBFFFF7FEBFFFF7FEBFFFF7FEBF0E
:1056D000FFF7FEBFFFF7FEBFFFF7FEBFFFF7FEBFFE
:1056E000FFF7FEBFFFF7FEBFFFF7FEBFFFF7FEBFEE
:1056F000FFF7FEBFFFF7FEBFFFF7FEBFFFF7FEBFDE
:0458E000FFF7FEBF11
:040000050800566D2C
:00000001FF
